{
  "_format": "hh-sol-artifact-1",
  "contractName": "CallAnything",
  "sourceName": "contracts/CallAnything.sol",
  "abi": [
    {
      "inputs": [
        {
          "internalType": "address",
          "name": "someAddress",
          "type": "address"
        },
        {
          "internalType": "uint256",
          "name": "amount",
          "type": "uint256"
        }
      ],
      "name": "callTransferFunctionDirectly",
      "outputs": [
        {
          "internalType": "bytes4",
          "name": "",
          "type": "bytes4"
        },
        {
          "internalType": "bool",
          "name": "",
          "type": "bool"
        }
      ],
      "stateMutability": "nonpayable",
      "type": "function"
    },
    {
      "inputs": [
        {
          "internalType": "address",
          "name": "someAddress",
          "type": "address"
        },
        {
          "internalType": "uint256",
          "name": "amount",
          "type": "uint256"
        }
      ],
      "name": "callTransferFunctionDirectlySig",
      "outputs": [
        {
          "internalType": "bytes4",
          "name": "",
          "type": "bytes4"
        },
        {
          "internalType": "bool",
          "name": "",
          "type": "bool"
        }
      ],
      "stateMutability": "nonpayable",
      "type": "function"
    },
    {
      "inputs": [
        {
          "internalType": "address",
          "name": "someAddress",
          "type": "address"
        },
        {
          "internalType": "uint256",
          "name": "amount",
          "type": "uint256"
        }
      ],
      "name": "getDataToCallTransfer",
      "outputs": [
        {
          "internalType": "bytes",
          "name": "",
          "type": "bytes"
        }
      ],
      "stateMutability": "pure",
      "type": "function"
    },
    {
      "inputs": [],
      "name": "getSelectorOne",
      "outputs": [
        {
          "internalType": "bytes4",
          "name": "selector",
          "type": "bytes4"
        }
      ],
      "stateMutability": "pure",
      "type": "function"
    },
    {
      "inputs": [],
      "name": "s_amount",
      "outputs": [
        {
          "internalType": "uint256",
          "name": "",
          "type": "uint256"
        }
      ],
      "stateMutability": "view",
      "type": "function"
    },
    {
      "inputs": [],
      "name": "s_someAddress",
      "outputs": [
        {
          "internalType": "address",
          "name": "",
          "type": "address"
        }
      ],
      "stateMutability": "view",
      "type": "function"
    },
    {
      "inputs": [
        {
          "internalType": "address",
          "name": "someAddress",
          "type": "address"
        },
        {
          "internalType": "uint256",
          "name": "amount",
          "type": "uint256"
        }
      ],
      "name": "transfer",
      "outputs": [],
      "stateMutability": "nonpayable",
      "type": "function"
    }
  ],
  "bytecode": "0x608060405234801561001057600080fd5b506108ac806100206000396000f3fe608060405234801561001057600080fd5b506004361061007d5760003560e01c8063a5694e4a1161005b578063a5694e4a14610101578063a9059cbb14610132578063aad229d51461014e578063c6e93bad1461016c5761007d565b80637c0c5f231461008257806388af190b146100b25780639a41d3ad146100e3575b600080fd5b61009c60048036038101906100979190610578565b61018a565b6040516100a99190610651565b60405180910390f35b6100cc60048036038101906100c79190610578565b61020c565b6040516100da9291906106c9565b60405180910390f35b6100eb610325565b6040516100f891906106f2565b60405180910390f35b61011b60048036038101906101169190610578565b610369565b6040516101299291906106c9565b60405180910390f35b61014c60048036038101906101479190610578565b61046a565b005b6101566104b5565b604051610163919061071c565b60405180910390f35b6101746104d9565b6040516101819190610746565b60405180910390f35b6060610194610325565b83836040516024016101a7929190610761565b604051602081830303815290604052907bffffffffffffffffffffffffffffffffffffffffffffffffffffffff19166020820180517bffffffffffffffffffffffffffffffffffffffffffffffffffffffff8381831617835250505050905092915050565b6000806000803073ffffffffffffffffffffffffffffffffffffffff16868660405160240161023c929190610761565b6040516020818303038152906040527f543f0891000000000000000000000000000000000000000000000000000000007bffffffffffffffffffffffffffffffffffffffffffffffffffffffff19166020820180517bffffffffffffffffffffffffffffffffffffffffffffffffffffffff83818316178352505050506040516102c691906107c6565b6000604051808303816000865af19150503d8060008114610303576040519150601f19603f3d011682016040523d82523d6000602084013e610308565b606091505b5091509150806103179061080f565b829350935050509250929050565b60006040518060400160405280601981526020017f7472616e7366657228616464726573732c2075696e743235360000000000000081525080519060200120905090565b6000806000803073ffffffffffffffffffffffffffffffffffffffff1661038e610325565b87876040516024016103a1929190610761565b604051602081830303815290604052907bffffffffffffffffffffffffffffffffffffffffffffffffffffffff19166020820180517bffffffffffffffffffffffffffffffffffffffffffffffffffffffff838183161783525050505060405161040b91906107c6565b6000604051808303816000865af19150503d8060008114610448576040519150601f19603f3d011682016040523d82523d6000602084013e61044d565b606091505b50915091508061045c9061080f565b829350935050509250929050565b816000806101000a81548173ffffffffffffffffffffffffffffffffffffffff021916908373ffffffffffffffffffffffffffffffffffffffff160217905550806001819055505050565b60008054906101000a900473ffffffffffffffffffffffffffffffffffffffff1681565b60015481565b600080fd5b600073ffffffffffffffffffffffffffffffffffffffff82169050919050565b600061050f826104e4565b9050919050565b61051f81610504565b811461052a57600080fd5b50565b60008135905061053c81610516565b92915050565b6000819050919050565b61055581610542565b811461056057600080fd5b50565b6000813590506105728161054c565b92915050565b6000806040838503121561058f5761058e6104df565b5b600061059d8582860161052d565b92505060206105ae85828601610563565b9150509250929050565b600081519050919050565b600082825260208201905092915050565b60005b838110156105f25780820151818401526020810190506105d7565b83811115610601576000848401525b50505050565b6000601f19601f8301169050919050565b6000610623826105b8565b61062d81856105c3565b935061063d8185602086016105d4565b61064681610607565b840191505092915050565b6000602082019050818103600083015261066b8184610618565b905092915050565b60007fffffffff0000000000000000000000000000000000000000000000000000000082169050919050565b6106a881610673565b82525050565b60008115159050919050565b6106c3816106ae565b82525050565b60006040820190506106de600083018561069f565b6106eb60208301846106ba565b9392505050565b6000602082019050610707600083018461069f565b92915050565b61071681610504565b82525050565b6000602082019050610731600083018461070d565b92915050565b61074081610542565b82525050565b600060208201905061075b6000830184610737565b92915050565b6000604082019050610776600083018561070d565b6107836020830184610737565b9392505050565b600081905092915050565b60006107a0826105b8565b6107aa818561078a565b93506107ba8185602086016105d4565b80840191505092915050565b60006107d28284610795565b915081905092915050565b6000819050602082019050919050565b60006107f98251610673565b80915050919050565b600082821b905092915050565b600061081a826105b8565b82610824846107dd565b905061082f816107ed565b9250600482101561086f5761086a7fffffffff0000000000000000000000000000000000000000000000000000000083600403600802610802565b831692505b505091905056fea2646970667358221220ae1bb072c313cbe22c79b86c1e64379bf407d18a9844bbcee060a79e1453784664736f6c63430008080033",
  "linkReferences": {},
  "deployedLinkReferences": {}
}