{
  "_format": "hh-sol-artifact-1",
  "contractName": "RandomIpfsNft",
  "sourceName": "contracts/ RandomIpfsNft.sol",
  "abi": [
    {
      "inputs": [
        {
          "internalType": "address",
          "name": "vrfCoordinatorV2",
          "type": "address"
        },
        {
          "internalType": "uint64",
          "name": "subscriptionId",
          "type": "uint64"
        },
        {
          "internalType": "bytes32",
          "name": "gasLane",
          "type": "bytes32"
        },
        {
          "internalType": "uint256",
          "name": "mintFee",
          "type": "uint256"
        },
        {
          "internalType": "uint32",
          "name": "callbackGasLimit",
          "type": "uint32"
        },
        {
          "internalType": "string[3]",
          "name": "dogTokenUris",
          "type": "string[3]"
        }
      ],
      "stateMutability": "nonpayable",
      "type": "constructor"
    },
    {
      "inputs": [
        {
          "internalType": "address",
          "name": "have",
          "type": "address"
        },
        {
          "internalType": "address",
          "name": "want",
          "type": "address"
        }
      ],
      "name": "OnlyCoordinatorCanFulfill",
      "type": "error"
    },
    {
      "inputs": [],
      "name": "RandomIpfsNft__NeedMoreETHSent",
      "type": "error"
    },
    {
      "inputs": [],
      "name": "RandomIpfsNft__RangeOutOfBounds",
      "type": "error"
    },
    {
      "inputs": [],
      "name": "RandomIpfsNft__TransferFailed",
      "type": "error"
    },
    {
      "anonymous": false,
      "inputs": [
        {
          "indexed": true,
          "internalType": "address",
          "name": "owner",
          "type": "address"
        },
        {
          "indexed": true,
          "internalType": "address",
          "name": "approved",
          "type": "address"
        },
        {
          "indexed": true,
          "internalType": "uint256",
          "name": "tokenId",
          "type": "uint256"
        }
      ],
      "name": "Approval",
      "type": "event"
    },
    {
      "anonymous": false,
      "inputs": [
        {
          "indexed": true,
          "internalType": "address",
          "name": "owner",
          "type": "address"
        },
        {
          "indexed": true,
          "internalType": "address",
          "name": "operator",
          "type": "address"
        },
        {
          "indexed": false,
          "internalType": "bool",
          "name": "approved",
          "type": "bool"
        }
      ],
      "name": "ApprovalForAll",
      "type": "event"
    },
    {
      "anonymous": false,
      "inputs": [
        {
          "indexed": false,
          "internalType": "enum RandomIpfsNft.Breed",
          "name": "dogBreed",
          "type": "uint8"
        },
        {
          "indexed": false,
          "internalType": "address",
          "name": "minter",
          "type": "address"
        }
      ],
      "name": "NftMinted",
      "type": "event"
    },
    {
      "anonymous": false,
      "inputs": [
        {
          "indexed": true,
          "internalType": "uint256",
          "name": "requestId",
          "type": "uint256"
        },
        {
          "indexed": false,
          "internalType": "address",
          "name": "requester",
          "type": "address"
        }
      ],
      "name": "NftRequested",
      "type": "event"
    },
    {
      "anonymous": false,
      "inputs": [
        {
          "indexed": true,
          "internalType": "address",
          "name": "previousOwner",
          "type": "address"
        },
        {
          "indexed": true,
          "internalType": "address",
          "name": "newOwner",
          "type": "address"
        }
      ],
      "name": "OwnershipTransferred",
      "type": "event"
    },
    {
      "anonymous": false,
      "inputs": [
        {
          "indexed": true,
          "internalType": "address",
          "name": "from",
          "type": "address"
        },
        {
          "indexed": true,
          "internalType": "address",
          "name": "to",
          "type": "address"
        },
        {
          "indexed": true,
          "internalType": "uint256",
          "name": "tokenId",
          "type": "uint256"
        }
      ],
      "name": "Transfer",
      "type": "event"
    },
    {
      "inputs": [
        {
          "internalType": "address",
          "name": "to",
          "type": "address"
        },
        {
          "internalType": "uint256",
          "name": "tokenId",
          "type": "uint256"
        }
      ],
      "name": "approve",
      "outputs": [],
      "stateMutability": "nonpayable",
      "type": "function"
    },
    {
      "inputs": [
        {
          "internalType": "address",
          "name": "owner",
          "type": "address"
        }
      ],
      "name": "balanceOf",
      "outputs": [
        {
          "internalType": "uint256",
          "name": "",
          "type": "uint256"
        }
      ],
      "stateMutability": "view",
      "type": "function"
    },
    {
      "inputs": [
        {
          "internalType": "uint256",
          "name": "tokenId",
          "type": "uint256"
        }
      ],
      "name": "getApproved",
      "outputs": [
        {
          "internalType": "address",
          "name": "",
          "type": "address"
        }
      ],
      "stateMutability": "view",
      "type": "function"
    },
    {
      "inputs": [
        {
          "internalType": "uint256",
          "name": "moddedRng",
          "type": "uint256"
        }
      ],
      "name": "getBreedFromModdedRng",
      "outputs": [
        {
          "internalType": "enum RandomIpfsNft.Breed",
          "name": "",
          "type": "uint8"
        }
      ],
      "stateMutability": "pure",
      "type": "function"
    },
    {
      "inputs": [],
      "name": "getChanceArray",
      "outputs": [
        {
          "internalType": "uint256[3]",
          "name": "",
          "type": "uint256[3]"
        }
      ],
      "stateMutability": "pure",
      "type": "function"
    },
    {
      "inputs": [
        {
          "internalType": "uint256",
          "name": "index",
          "type": "uint256"
        }
      ],
      "name": "getDogTokenUris",
      "outputs": [
        {
          "internalType": "string",
          "name": "",
          "type": "string"
        }
      ],
      "stateMutability": "view",
      "type": "function"
    },
    {
      "inputs": [],
      "name": "getMintFee",
      "outputs": [
        {
          "internalType": "uint256",
          "name": "",
          "type": "uint256"
        }
      ],
      "stateMutability": "view",
      "type": "function"
    },
    {
      "inputs": [],
      "name": "getTokenCounter",
      "outputs": [
        {
          "internalType": "uint256",
          "name": "",
          "type": "uint256"
        }
      ],
      "stateMutability": "view",
      "type": "function"
    },
    {
      "inputs": [
        {
          "internalType": "address",
          "name": "owner",
          "type": "address"
        },
        {
          "internalType": "address",
          "name": "operator",
          "type": "address"
        }
      ],
      "name": "isApprovedForAll",
      "outputs": [
        {
          "internalType": "bool",
          "name": "",
          "type": "bool"
        }
      ],
      "stateMutability": "view",
      "type": "function"
    },
    {
      "inputs": [],
      "name": "name",
      "outputs": [
        {
          "internalType": "string",
          "name": "",
          "type": "string"
        }
      ],
      "stateMutability": "view",
      "type": "function"
    },
    {
      "inputs": [],
      "name": "owner",
      "outputs": [
        {
          "internalType": "address",
          "name": "",
          "type": "address"
        }
      ],
      "stateMutability": "view",
      "type": "function"
    },
    {
      "inputs": [
        {
          "internalType": "uint256",
          "name": "tokenId",
          "type": "uint256"
        }
      ],
      "name": "ownerOf",
      "outputs": [
        {
          "internalType": "address",
          "name": "",
          "type": "address"
        }
      ],
      "stateMutability": "view",
      "type": "function"
    },
    {
      "inputs": [
        {
          "internalType": "uint256",
          "name": "requestId",
          "type": "uint256"
        },
        {
          "internalType": "uint256[]",
          "name": "randomWords",
          "type": "uint256[]"
        }
      ],
      "name": "rawFulfillRandomWords",
      "outputs": [],
      "stateMutability": "nonpayable",
      "type": "function"
    },
    {
      "inputs": [],
      "name": "renounceOwnership",
      "outputs": [],
      "stateMutability": "nonpayable",
      "type": "function"
    },
    {
      "inputs": [],
      "name": "requestNft",
      "outputs": [
        {
          "internalType": "uint256",
          "name": "requestId",
          "type": "uint256"
        }
      ],
      "stateMutability": "payable",
      "type": "function"
    },
    {
      "inputs": [
        {
          "internalType": "uint256",
          "name": "",
          "type": "uint256"
        }
      ],
      "name": "s_requestIdToSender",
      "outputs": [
        {
          "internalType": "address",
          "name": "",
          "type": "address"
        }
      ],
      "stateMutability": "view",
      "type": "function"
    },
    {
      "inputs": [],
      "name": "s_tokenCounter",
      "outputs": [
        {
          "internalType": "uint256",
          "name": "",
          "type": "uint256"
        }
      ],
      "stateMutability": "view",
      "type": "function"
    },
    {
      "inputs": [
        {
          "internalType": "address",
          "name": "from",
          "type": "address"
        },
        {
          "internalType": "address",
          "name": "to",
          "type": "address"
        },
        {
          "internalType": "uint256",
          "name": "tokenId",
          "type": "uint256"
        }
      ],
      "name": "safeTransferFrom",
      "outputs": [],
      "stateMutability": "nonpayable",
      "type": "function"
    },
    {
      "inputs": [
        {
          "internalType": "address",
          "name": "from",
          "type": "address"
        },
        {
          "internalType": "address",
          "name": "to",
          "type": "address"
        },
        {
          "internalType": "uint256",
          "name": "tokenId",
          "type": "uint256"
        },
        {
          "internalType": "bytes",
          "name": "data",
          "type": "bytes"
        }
      ],
      "name": "safeTransferFrom",
      "outputs": [],
      "stateMutability": "nonpayable",
      "type": "function"
    },
    {
      "inputs": [
        {
          "internalType": "address",
          "name": "operator",
          "type": "address"
        },
        {
          "internalType": "bool",
          "name": "approved",
          "type": "bool"
        }
      ],
      "name": "setApprovalForAll",
      "outputs": [],
      "stateMutability": "nonpayable",
      "type": "function"
    },
    {
      "inputs": [
        {
          "internalType": "bytes4",
          "name": "interfaceId",
          "type": "bytes4"
        }
      ],
      "name": "supportsInterface",
      "outputs": [
        {
          "internalType": "bool",
          "name": "",
          "type": "bool"
        }
      ],
      "stateMutability": "view",
      "type": "function"
    },
    {
      "inputs": [],
      "name": "symbol",
      "outputs": [
        {
          "internalType": "string",
          "name": "",
          "type": "string"
        }
      ],
      "stateMutability": "view",
      "type": "function"
    },
    {
      "inputs": [
        {
          "internalType": "uint256",
          "name": "tokenId",
          "type": "uint256"
        }
      ],
      "name": "tokenURI",
      "outputs": [
        {
          "internalType": "string",
          "name": "",
          "type": "string"
        }
      ],
      "stateMutability": "view",
      "type": "function"
    },
    {
      "inputs": [
        {
          "internalType": "address",
          "name": "from",
          "type": "address"
        },
        {
          "internalType": "address",
          "name": "to",
          "type": "address"
        },
        {
          "internalType": "uint256",
          "name": "tokenId",
          "type": "uint256"
        }
      ],
      "name": "transferFrom",
      "outputs": [],
      "stateMutability": "nonpayable",
      "type": "function"
    },
    {
      "inputs": [
        {
          "internalType": "address",
          "name": "newOwner",
          "type": "address"
        }
      ],
      "name": "transferOwnership",
      "outputs": [],
      "stateMutability": "nonpayable",
      "type": "function"
    },
    {
      "inputs": [],
      "name": "withdraw",
      "outputs": [],
      "stateMutability": "nonpayable",
      "type": "function"
    }
  ],
  "bytecode": "0x6101206040523480156200001257600080fd5b506040516200452a3803806200452a833981810160405281019062000038919062000809565b6040518060400160405280600f81526020017f52616e646f6d2049504653204e465400000000000000000000000000000000008152506040518060400160405280600381526020017f52494e0000000000000000000000000000000000000000000000000000000000815250878073ffffffffffffffffffffffffffffffffffffffff1660808173ffffffffffffffffffffffffffffffffffffffff1660601b81525050508160009080519060200190620000f59291906200029c565b5080600190805190602001906200010e9291906200029c565b5050506200013162000125620001ce60201b60201c565b620001d660201b60201c565b8573ffffffffffffffffffffffffffffffffffffffff1660a08173ffffffffffffffffffffffffffffffffffffffff1660601b815250508360e081815250508467ffffffffffffffff1660c08167ffffffffffffffff1660c01b815250508163ffffffff166101008163ffffffff1660e01b8152505080600a906003620001ba9291906200032d565b5082600b8190555050505050505062000929565b600033905090565b6000600760009054906101000a900473ffffffffffffffffffffffffffffffffffffffff16905081600760006101000a81548173ffffffffffffffffffffffffffffffffffffffff021916908373ffffffffffffffffffffffffffffffffffffffff1602179055508173ffffffffffffffffffffffffffffffffffffffff168173ffffffffffffffffffffffffffffffffffffffff167f8be0079c531659141344cd1fd0a4f28419497f9722a3daafe3b4186f6b6457e060405160405180910390a35050565b828054620002aa90620008f3565b90600052602060002090601f016020900481019282620002ce57600085556200031a565b82601f10620002e957805160ff19168380011785556200031a565b828001600101855582156200031a579182015b8281111562000319578251825591602001919060010190620002fc565b5b50905062000329919062000394565b5090565b82805482825590600052602060002090810192821562000381579160200282015b82811115620003805782518290805190602001906200036f9291906200029c565b50916020019190600101906200034e565b5b509050620003909190620003b3565b5090565b5b80821115620003af57600081600090555060010162000395565b5090565b5b80821115620003d75760008181620003cd9190620003db565b50600101620003b4565b5090565b508054620003e990620008f3565b6000825580601f10620003fd57506200041e565b601f0160209004906000526020600020908101906200041d919062000394565b5b50565b6000604051905090565b600080fd5b600080fd5b600073ffffffffffffffffffffffffffffffffffffffff82169050919050565b6000620004628262000435565b9050919050565b620004748162000455565b81146200048057600080fd5b50565b600081519050620004948162000469565b92915050565b600067ffffffffffffffff82169050919050565b620004b9816200049a565b8114620004c557600080fd5b50565b600081519050620004d981620004ae565b92915050565b6000819050919050565b620004f481620004df565b81146200050057600080fd5b50565b6000815190506200051481620004e9565b92915050565b6000819050919050565b6200052f816200051a565b81146200053b57600080fd5b50565b6000815190506200054f8162000524565b92915050565b600063ffffffff82169050919050565b620005708162000555565b81146200057c57600080fd5b50565b600081519050620005908162000565565b92915050565b600080fd5b6000601f19601f8301169050919050565b7f4e487b7100000000000000000000000000000000000000000000000000000000600052604160045260246000fd5b620005e6826200059b565b810181811067ffffffffffffffff82111715620006085762000607620005ac565b5b80604052505050565b60006200061d62000421565b90506200062b8282620005db565b919050565b600067ffffffffffffffff8211156200064e576200064d620005ac565b5b602082029050919050565b600080fd5b600080fd5b600067ffffffffffffffff821115620006815762000680620005ac565b5b6200068c826200059b565b9050602081019050919050565b60005b83811015620006b95780820151818401526020810190506200069c565b83811115620006c9576000848401525b50505050565b6000620006e6620006e08462000663565b62000611565b9050828152602081018484840111156200070557620007046200065e565b5b6200071284828562000699565b509392505050565b600082601f83011262000732576200073162000596565b5b815162000744848260208601620006cf565b91505092915050565b6000620007646200075e8462000630565b62000611565b9050806020840283018581111562000781576200078062000659565b5b835b81811015620007cf57805167ffffffffffffffff811115620007aa57620007a962000596565b5b808601620007b989826200071a565b8552602085019450505060208101905062000783565b5050509392505050565b600082601f830112620007f157620007f062000596565b5b6003620008008482856200074d565b91505092915050565b60008060008060008060c087890312156200082957620008286200042b565b5b60006200083989828a0162000483565b96505060206200084c89828a01620004c8565b95505060406200085f89828a0162000503565b94505060606200087289828a016200053e565b93505060806200088589828a016200057f565b92505060a087015167ffffffffffffffff811115620008a957620008a862000430565b5b620008b789828a01620007d9565b9150509295509295509295565b7f4e487b7100000000000000000000000000000000000000000000000000000000600052602260045260246000fd5b600060028204905060018216806200090c57607f821691505b60208210811415620009235762000922620008c4565b5b50919050565b60805160601c60a05160601c60c05160c01c60e0516101005160e01c613ba9620009816000396000610ff801526000610fb401526000610fd501526000610f7801526000818161091d01526109710152613ba96000f3fe6080604052600436106101815760003560e01c806370a08231116100d1578063a36f573b1161008a578063b88d4fde11610064578063b88d4fde14610577578063c87b56dd146105a0578063e985e9c5146105dd578063f2fde38b1461061a57610181565b8063a36f573b146104df578063a51cccf31461051c578063aa1524911461055957610181565b806370a08231146103e1578063715018a61461041e5780637a5caab3146104355780638da5cb5b1461046057806395d89b411461048b578063a22cb465146104b657610181565b806323b872dd1161013e57806342842e0e1161011857806342842e0e146103255780635dacf5f41461034e5780636352211e146103795780636e02007d146103b657610181565b806323b872dd146102a85780633af25975146102d15780633ccfd60b1461030e57610181565b806301ffc9a71461018657806306fdde03146101c3578063081812fc146101ee578063095ea7b31461022b5780630b21a83b146102545780631fe543e31461027f575b600080fd5b34801561019257600080fd5b506101ad60048036038101906101a89190612788565b610643565b6040516101ba91906127d0565b60405180910390f35b3480156101cf57600080fd5b506101d8610725565b6040516101e59190612884565b60405180910390f35b3480156101fa57600080fd5b50610215600480360381019061021091906128dc565b6107b7565b604051610222919061294a565b60405180910390f35b34801561023757600080fd5b50610252600480360381019061024d9190612991565b6107fd565b005b34801561026057600080fd5b50610269610915565b60405161027691906129e0565b60405180910390f35b34801561028b57600080fd5b506102a660048036038101906102a19190612b43565b61091b565b005b3480156102b457600080fd5b506102cf60048036038101906102ca9190612b9f565b6109db565b005b3480156102dd57600080fd5b506102f860048036038101906102f391906128dc565b610a3b565b6040516103059190612884565b60405180910390f35b34801561031a57600080fd5b50610323610aeb565b005b34801561033157600080fd5b5061034c60048036038101906103479190612b9f565b610b9f565b005b34801561035a57600080fd5b50610363610bbf565b6040516103709190612c9d565b60405180910390f35b34801561038557600080fd5b506103a0600480360381019061039b91906128dc565b610bea565b6040516103ad919061294a565b60405180910390f35b3480156103c257600080fd5b506103cb610c71565b6040516103d891906129e0565b60405180910390f35b3480156103ed57600080fd5b5061040860048036038101906104039190612cb8565b610c7b565b60405161041591906129e0565b60405180910390f35b34801561042a57600080fd5b50610433610d33565b005b34801561044157600080fd5b5061044a610d47565b60405161045791906129e0565b60405180910390f35b34801561046c57600080fd5b50610475610d51565b604051610482919061294a565b60405180910390f35b34801561049757600080fd5b506104a0610d7b565b6040516104ad9190612884565b60405180910390f35b3480156104c257600080fd5b506104dd60048036038101906104d89190612d11565b610e0d565b005b3480156104eb57600080fd5b50610506600480360381019061050191906128dc565b610e23565b604051610513919061294a565b60405180910390f35b34801561052857600080fd5b50610543600480360381019061053e91906128dc565b610e56565b6040516105509190612dc8565b60405180910390f35b610561610f38565b60405161056e91906129e0565b60405180910390f35b34801561058357600080fd5b5061059e60048036038101906105999190612e98565b61111a565b005b3480156105ac57600080fd5b506105c760048036038101906105c291906128dc565b61117c565b6040516105d49190612884565b60405180910390f35b3480156105e957600080fd5b5061060460048036038101906105ff9190612f1b565b61128f565b60405161061191906127d0565b60405180910390f35b34801561062657600080fd5b50610641600480360381019061063c9190612cb8565b611323565b005b60007f80ac58cd000000000000000000000000000000000000000000000000000000007bffffffffffffffffffffffffffffffffffffffffffffffffffffffff1916827bffffffffffffffffffffffffffffffffffffffffffffffffffffffff1916148061070e57507f5b5e139f000000000000000000000000000000000000000000000000000000007bffffffffffffffffffffffffffffffffffffffffffffffffffffffff1916827bffffffffffffffffffffffffffffffffffffffffffffffffffffffff1916145b8061071e575061071d826113a7565b5b9050919050565b60606000805461073490612f8a565b80601f016020809104026020016040519081016040528092919081815260200182805461076090612f8a565b80156107ad5780601f10610782576101008083540402835291602001916107ad565b820191906000526020600020905b81548152906001019060200180831161079057829003601f168201915b5050505050905090565b60006107c282611411565b6004600083815260200190815260200160002060009054906101000a900473ffffffffffffffffffffffffffffffffffffffff169050919050565b600061080882610bea565b90508073ffffffffffffffffffffffffffffffffffffffff168373ffffffffffffffffffffffffffffffffffffffff161415610879576040517f08c379a00000000000000000000000000000000000000000000000000000000081526004016108709061302e565b60405180910390fd5b8073ffffffffffffffffffffffffffffffffffffffff1661089861145c565b73ffffffffffffffffffffffffffffffffffffffff1614806108c757506108c6816108c161145c565b61128f565b5b610906576040517f08c379a00000000000000000000000000000000000000000000000000000000081526004016108fd906130c0565b60405180910390fd5b6109108383611464565b505050565b60095481565b7f000000000000000000000000000000000000000000000000000000000000000073ffffffffffffffffffffffffffffffffffffffff163373ffffffffffffffffffffffffffffffffffffffff16146109cd57337f00000000000000000000000000000000000000000000000000000000000000006040517f1cf993f40000000000000000000000000000000000000000000000000000000081526004016109c49291906130e0565b60405180910390fd5b6109d7828261151d565b5050565b6109ec6109e661145c565b826116a2565b610a2b576040517f08c379a0000000000000000000000000000000000000000000000000000000008152600401610a229061317b565b60405180910390fd5b610a36838383611737565b505050565b6060600a8281548110610a5157610a5061319b565b5b906000526020600020018054610a6690612f8a565b80601f0160208091040260200160405190810160405280929190818152602001828054610a9290612f8a565b8015610adf5780601f10610ab457610100808354040283529160200191610adf565b820191906000526020600020905b815481529060010190602001808311610ac257829003601f168201915b50505050509050919050565b610af3611a31565b600047905060003373ffffffffffffffffffffffffffffffffffffffff1682604051610b1e906131fb565b60006040518083038185875af1925050503d8060008114610b5b576040519150601f19603f3d011682016040523d82523d6000602084013e610b60565b606091505b5050905080610b9b576040517fca7e25b700000000000000000000000000000000000000000000000000000000815260040160405180910390fd5b5050565b610bba8383836040518060200160405280600081525061111a565b505050565b610bc7612657565b6040518060600160405280600a8152602001601e81526020016064815250905090565b600080610bf683611aaf565b9050600073ffffffffffffffffffffffffffffffffffffffff168173ffffffffffffffffffffffffffffffffffffffff161415610c68576040517f08c379a0000000000000000000000000000000000000000000000000000000008152600401610c5f9061325c565b60405180910390fd5b80915050919050565b6000600954905090565b60008073ffffffffffffffffffffffffffffffffffffffff168273ffffffffffffffffffffffffffffffffffffffff161415610cec576040517f08c379a0000000000000000000000000000000000000000000000000000000008152600401610ce3906132ee565b60405180910390fd5b600360008373ffffffffffffffffffffffffffffffffffffffff1673ffffffffffffffffffffffffffffffffffffffff168152602001908152602001600020549050919050565b610d3b611a31565b610d456000611aec565b565b6000600b54905090565b6000600760009054906101000a900473ffffffffffffffffffffffffffffffffffffffff16905090565b606060018054610d8a90612f8a565b80601f0160208091040260200160405190810160405280929190818152602001828054610db690612f8a565b8015610e035780601f10610dd857610100808354040283529160200191610e03565b820191906000526020600020905b815481529060010190602001808311610de657829003601f168201915b5050505050905090565b610e1f610e1861145c565b8383611bb2565b5050565b60086020528060005260406000206000915054906101000a900473ffffffffffffffffffffffffffffffffffffffff1681565b600080600090506000610e67610bbf565b905060005b6003811015610f0057828510158015610ea65750818160038110610e9357610e9261319b565b5b602002015183610ea3919061333d565b85105b15610ec857806002811115610ebe57610ebd612d51565b5b9350505050610f33565b818160038110610edb57610eda61319b565b5b602002015183610eeb919061333d565b92508080610ef890613393565b915050610e6c565b506040517f12806c9d00000000000000000000000000000000000000000000000000000000815260040160405180910390fd5b919050565b6000600b54341015610f76576040517fb90f491000000000000000000000000000000000000000000000000000000000815260040160405180910390fd5b7f000000000000000000000000000000000000000000000000000000000000000073ffffffffffffffffffffffffffffffffffffffff16635d3b1d307f00000000000000000000000000000000000000000000000000000000000000007f000000000000000000000000000000000000000000000000000000000000000060037f000000000000000000000000000000000000000000000000000000000000000060016040518663ffffffff1660e01b8152600401611039959493929190613454565b602060405180830381600087803b15801561105357600080fd5b505af1158015611067573d6000803e3d6000fd5b505050506040513d601f19601f8201168201806040525081019061108b91906134bc565b9050336008600083815260200190815260200160002060006101000a81548173ffffffffffffffffffffffffffffffffffffffff021916908373ffffffffffffffffffffffffffffffffffffffff160217905550807ff873236e6cc0ecc5be1a9a35c95ee5b8d1ac4cc7bfef0cc5060391d6cc98e26b3360405161110f919061294a565b60405180910390a290565b61112b61112561145c565b836116a2565b61116a576040517f08c379a00000000000000000000000000000000000000000000000000000000081526004016111619061317b565b60405180910390fd5b61117684848484611d1f565b50505050565b606061118782611411565b60006006600084815260200190815260200160002080546111a790612f8a565b80601f01602080910402602001604051908101604052809291908181526020018280546111d390612f8a565b80156112205780601f106111f557610100808354040283529160200191611220565b820191906000526020600020905b81548152906001019060200180831161120357829003601f168201915b505050505090506000611231611d7b565b905060008151141561124757819250505061128a565b60008251111561127c578082604051602001611264929190613525565b6040516020818303038152906040529250505061128a565b61128584611d92565b925050505b919050565b6000600560008473ffffffffffffffffffffffffffffffffffffffff1673ffffffffffffffffffffffffffffffffffffffff16815260200190815260200160002060008373ffffffffffffffffffffffffffffffffffffffff1673ffffffffffffffffffffffffffffffffffffffff16815260200190815260200160002060009054906101000a900460ff16905092915050565b61132b611a31565b600073ffffffffffffffffffffffffffffffffffffffff168173ffffffffffffffffffffffffffffffffffffffff16141561139b576040517f08c379a0000000000000000000000000000000000000000000000000000000008152600401611392906135bb565b60405180910390fd5b6113a481611aec565b50565b60007f01ffc9a7000000000000000000000000000000000000000000000000000000007bffffffffffffffffffffffffffffffffffffffffffffffffffffffff1916827bffffffffffffffffffffffffffffffffffffffffffffffffffffffff1916149050919050565b61141a81611dfa565b611459576040517f08c379a00000000000000000000000000000000000000000000000000000000081526004016114509061325c565b60405180910390fd5b50565b600033905090565b816004600083815260200190815260200160002060006101000a81548173ffffffffffffffffffffffffffffffffffffffff021916908373ffffffffffffffffffffffffffffffffffffffff160217905550808273ffffffffffffffffffffffffffffffffffffffff166114d783610bea565b73ffffffffffffffffffffffffffffffffffffffff167f8c5be1e5ebec7d5bd14f71427d1e84f3dd0314c0f7b2291e5b200ac8c7c3b92560405160405180910390a45050565b60006008600084815260200190815260200160002060009054906101000a900473ffffffffffffffffffffffffffffffffffffffff1690506000600954905060006064846000815181106115745761157361319b565b5b6020026020010151611586919061360a565b9050600061159382610e56565b905061159f8484611e3b565b61166183600a8360028111156115b8576115b7612d51565b5b815481106115c9576115c861319b565b5b9060005260206000200180546115de90612f8a565b80601f016020809104026020016040519081016040528092919081815260200182805461160a90612f8a565b80156116575780601f1061162c57610100808354040283529160200191611657565b820191906000526020600020905b81548152906001019060200180831161163a57829003601f168201915b5050505050611e59565b7f8a269f26b688e110e9cbd887d163dab35cae678fa353a0292de532c0cac1ecdc818560405161169292919061363b565b60405180910390a1505050505050565b6000806116ae83610bea565b90508073ffffffffffffffffffffffffffffffffffffffff168473ffffffffffffffffffffffffffffffffffffffff1614806116f057506116ef818561128f565b5b8061172e57508373ffffffffffffffffffffffffffffffffffffffff16611716846107b7565b73ffffffffffffffffffffffffffffffffffffffff16145b91505092915050565b8273ffffffffffffffffffffffffffffffffffffffff1661175782610bea565b73ffffffffffffffffffffffffffffffffffffffff16146117ad576040517f08c379a00000000000000000000000000000000000000000000000000000000081526004016117a4906136d6565b60405180910390fd5b600073ffffffffffffffffffffffffffffffffffffffff168273ffffffffffffffffffffffffffffffffffffffff16141561181d576040517f08c379a000000000000000000000000000000000000000000000000000000000815260040161181490613768565b60405180910390fd5b61182a8383836001611ecd565b8273ffffffffffffffffffffffffffffffffffffffff1661184a82610bea565b73ffffffffffffffffffffffffffffffffffffffff16146118a0576040517f08c379a0000000000000000000000000000000000000000000000000000000008152600401611897906136d6565b60405180910390fd5b6004600082815260200190815260200160002060006101000a81549073ffffffffffffffffffffffffffffffffffffffff02191690556001600360008573ffffffffffffffffffffffffffffffffffffffff1673ffffffffffffffffffffffffffffffffffffffff168152602001908152602001600020600082825403925050819055506001600360008473ffffffffffffffffffffffffffffffffffffffff1673ffffffffffffffffffffffffffffffffffffffff16815260200190815260200160002060008282540192505081905550816002600083815260200190815260200160002060006101000a81548173ffffffffffffffffffffffffffffffffffffffff021916908373ffffffffffffffffffffffffffffffffffffffff160217905550808273ffffffffffffffffffffffffffffffffffffffff168473ffffffffffffffffffffffffffffffffffffffff167fddf252ad1be2c89b69c2b068fc378daa952ba7f163c4a11628f55a4df523b3ef60405160405180910390a4611a2c8383836001611ff3565b505050565b611a3961145c565b73ffffffffffffffffffffffffffffffffffffffff16611a57610d51565b73ffffffffffffffffffffffffffffffffffffffff1614611aad576040517f08c379a0000000000000000000000000000000000000000000000000000000008152600401611aa4906137d4565b60405180910390fd5b565b60006002600083815260200190815260200160002060009054906101000a900473ffffffffffffffffffffffffffffffffffffffff169050919050565b6000600760009054906101000a900473ffffffffffffffffffffffffffffffffffffffff16905081600760006101000a81548173ffffffffffffffffffffffffffffffffffffffff021916908373ffffffffffffffffffffffffffffffffffffffff1602179055508173ffffffffffffffffffffffffffffffffffffffff168173ffffffffffffffffffffffffffffffffffffffff167f8be0079c531659141344cd1fd0a4f28419497f9722a3daafe3b4186f6b6457e060405160405180910390a35050565b8173ffffffffffffffffffffffffffffffffffffffff168373ffffffffffffffffffffffffffffffffffffffff161415611c21576040517f08c379a0000000000000000000000000000000000000000000000000000000008152600401611c1890613840565b60405180910390fd5b80600560008573ffffffffffffffffffffffffffffffffffffffff1673ffffffffffffffffffffffffffffffffffffffff16815260200190815260200160002060008473ffffffffffffffffffffffffffffffffffffffff1673ffffffffffffffffffffffffffffffffffffffff16815260200190815260200160002060006101000a81548160ff0219169083151502179055508173ffffffffffffffffffffffffffffffffffffffff168373ffffffffffffffffffffffffffffffffffffffff167f17307eab39ab6107e8899845ad3d59bd9653f200f220920489ca2b5937696c3183604051611d1291906127d0565b60405180910390a3505050565b611d2a848484611737565b611d3684848484611ff9565b611d75576040517f08c379a0000000000000000000000000000000000000000000000000000000008152600401611d6c906138d2565b60405180910390fd5b50505050565b606060405180602001604052806000815250905090565b6060611d9d82611411565b6000611da7611d7b565b90506000815111611dc75760405180602001604052806000815250611df2565b80611dd184612190565b604051602001611de2929190613525565b6040516020818303038152906040525b915050919050565b60008073ffffffffffffffffffffffffffffffffffffffff16611e1c83611aaf565b73ffffffffffffffffffffffffffffffffffffffff1614159050919050565b611e55828260405180602001604052806000815250612268565b5050565b611e6282611dfa565b611ea1576040517f08c379a0000000000000000000000000000000000000000000000000000000008152600401611e9890613964565b60405180910390fd5b80600660008481526020019081526020016000209080519060200190611ec8929190612679565b505050565b6001811115611fed57600073ffffffffffffffffffffffffffffffffffffffff168473ffffffffffffffffffffffffffffffffffffffff1614611f615780600360008673ffffffffffffffffffffffffffffffffffffffff1673ffffffffffffffffffffffffffffffffffffffff1681526020019081526020016000206000828254611f599190613984565b925050819055505b600073ffffffffffffffffffffffffffffffffffffffff168373ffffffffffffffffffffffffffffffffffffffff1614611fec5780600360008573ffffffffffffffffffffffffffffffffffffffff1673ffffffffffffffffffffffffffffffffffffffff1681526020019081526020016000206000828254611fe4919061333d565b925050819055505b5b50505050565b50505050565b600061201a8473ffffffffffffffffffffffffffffffffffffffff166122c3565b15612183578373ffffffffffffffffffffffffffffffffffffffff1663150b7a0261204361145c565b8786866040518563ffffffff1660e01b81526004016120659493929190613a0d565b602060405180830381600087803b15801561207f57600080fd5b505af19250505080156120b057506040513d601f19601f820116820180604052508101906120ad9190613a6e565b60015b612133573d80600081146120e0576040519150601f19603f3d011682016040523d82523d6000602084013e6120e5565b606091505b5060008151141561212b576040517f08c379a0000000000000000000000000000000000000000000000000000000008152600401612122906138d2565b60405180910390fd5b805181602001fd5b63150b7a0260e01b7bffffffffffffffffffffffffffffffffffffffffffffffffffffffff1916817bffffffffffffffffffffffffffffffffffffffffffffffffffffffff191614915050612188565b600190505b949350505050565b60606000600161219f846122e6565b01905060008167ffffffffffffffff8111156121be576121bd612a00565b5b6040519080825280601f01601f1916602001820160405280156121f05781602001600182028036833780820191505090505b509050600082602001820190505b60011561225d578080600190039150507f3031323334353637383961626364656600000000000000000000000000000000600a86061a8153600a8581612247576122466135db565b5b04945060008514156122585761225d565b6121fe565b819350505050919050565b6122728383612439565b61227f6000848484611ff9565b6122be576040517f08c379a00000000000000000000000000000000000000000000000000000000081526004016122b5906138d2565b60405180910390fd5b505050565b6000808273ffffffffffffffffffffffffffffffffffffffff163b119050919050565b600080600090507a184f03e93ff9f4daa797ed6e38ed64bf6a1f0100000000000000008310612344577a184f03e93ff9f4daa797ed6e38ed64bf6a1f010000000000000000838161233a576123396135db565b5b0492506040810190505b6d04ee2d6d415b85acef81000000008310612381576d04ee2d6d415b85acef81000000008381612377576123766135db565b5b0492506020810190505b662386f26fc1000083106123b057662386f26fc1000083816123a6576123a56135db565b5b0492506010810190505b6305f5e10083106123d9576305f5e10083816123cf576123ce6135db565b5b0492506008810190505b61271083106123fe5761271083816123f4576123f36135db565b5b0492506004810190505b606483106124215760648381612417576124166135db565b5b0492506002810190505b600a8310612430576001810190505b80915050919050565b600073ffffffffffffffffffffffffffffffffffffffff168273ffffffffffffffffffffffffffffffffffffffff1614156124a9576040517f08c379a00000000000000000000000000000000000000000000000000000000081526004016124a090613ae7565b60405180910390fd5b6124b281611dfa565b156124f2576040517f08c379a00000000000000000000000000000000000000000000000000000000081526004016124e990613b53565b60405180910390fd5b612500600083836001611ecd565b61250981611dfa565b15612549576040517f08c379a000000000000000000000000000000000000000000000000000000000815260040161254090613b53565b60405180910390fd5b6001600360008473ffffffffffffffffffffffffffffffffffffffff1673ffffffffffffffffffffffffffffffffffffffff16815260200190815260200160002060008282540192505081905550816002600083815260200190815260200160002060006101000a81548173ffffffffffffffffffffffffffffffffffffffff021916908373ffffffffffffffffffffffffffffffffffffffff160217905550808273ffffffffffffffffffffffffffffffffffffffff16600073ffffffffffffffffffffffffffffffffffffffff167fddf252ad1be2c89b69c2b068fc378daa952ba7f163c4a11628f55a4df523b3ef60405160405180910390a4612653600083836001611ff3565b5050565b6040518060600160405280600390602082028036833780820191505090505090565b82805461268590612f8a565b90600052602060002090601f0160209004810192826126a757600085556126ee565b82601f106126c057805160ff19168380011785556126ee565b828001600101855582156126ee579182015b828111156126ed5782518255916020019190600101906126d2565b5b5090506126fb91906126ff565b5090565b5b80821115612718576000816000905550600101612700565b5090565b6000604051905090565b600080fd5b600080fd5b60007fffffffff0000000000000000000000000000000000000000000000000000000082169050919050565b61276581612730565b811461277057600080fd5b50565b6000813590506127828161275c565b92915050565b60006020828403121561279e5761279d612726565b5b60006127ac84828501612773565b91505092915050565b60008115159050919050565b6127ca816127b5565b82525050565b60006020820190506127e560008301846127c1565b92915050565b600081519050919050565b600082825260208201905092915050565b60005b8381101561282557808201518184015260208101905061280a565b83811115612834576000848401525b50505050565b6000601f19601f8301169050919050565b6000612856826127eb565b61286081856127f6565b9350612870818560208601612807565b6128798161283a565b840191505092915050565b6000602082019050818103600083015261289e818461284b565b905092915050565b6000819050919050565b6128b9816128a6565b81146128c457600080fd5b50565b6000813590506128d6816128b0565b92915050565b6000602082840312156128f2576128f1612726565b5b6000612900848285016128c7565b91505092915050565b600073ffffffffffffffffffffffffffffffffffffffff82169050919050565b600061293482612909565b9050919050565b61294481612929565b82525050565b600060208201905061295f600083018461293b565b92915050565b61296e81612929565b811461297957600080fd5b50565b60008135905061298b81612965565b92915050565b600080604083850312156129a8576129a7612726565b5b60006129b68582860161297c565b92505060206129c7858286016128c7565b9150509250929050565b6129da816128a6565b82525050565b60006020820190506129f560008301846129d1565b92915050565b600080fd5b7f4e487b7100000000000000000000000000000000000000000000000000000000600052604160045260246000fd5b612a388261283a565b810181811067ffffffffffffffff82111715612a5757612a56612a00565b5b80604052505050565b6000612a6a61271c565b9050612a768282612a2f565b919050565b600067ffffffffffffffff821115612a9657612a95612a00565b5b602082029050602081019050919050565b600080fd5b6000612abf612aba84612a7b565b612a60565b90508083825260208201905060208402830185811115612ae257612ae1612aa7565b5b835b81811015612b0b5780612af788826128c7565b845260208401935050602081019050612ae4565b5050509392505050565b600082601f830112612b2a57612b296129fb565b5b8135612b3a848260208601612aac565b91505092915050565b60008060408385031215612b5a57612b59612726565b5b6000612b68858286016128c7565b925050602083013567ffffffffffffffff811115612b8957612b8861272b565b5b612b9585828601612b15565b9150509250929050565b600080600060608486031215612bb857612bb7612726565b5b6000612bc68682870161297c565b9350506020612bd78682870161297c565b9250506040612be8868287016128c7565b9150509250925092565b600060039050919050565b600081905092915050565b6000819050919050565b612c1b816128a6565b82525050565b6000612c2d8383612c12565b60208301905092915050565b6000602082019050919050565b612c4f81612bf2565b612c598184612bfd565b9250612c6482612c08565b8060005b83811015612c95578151612c7c8782612c21565b9650612c8783612c39565b925050600181019050612c68565b505050505050565b6000606082019050612cb26000830184612c46565b92915050565b600060208284031215612cce57612ccd612726565b5b6000612cdc8482850161297c565b91505092915050565b612cee816127b5565b8114612cf957600080fd5b50565b600081359050612d0b81612ce5565b92915050565b60008060408385031215612d2857612d27612726565b5b6000612d368582860161297c565b9250506020612d4785828601612cfc565b9150509250929050565b7f4e487b7100000000000000000000000000000000000000000000000000000000600052602160045260246000fd5b60038110612d9157612d90612d51565b5b50565b6000819050612da282612d80565b919050565b6000612db282612d94565b9050919050565b612dc281612da7565b82525050565b6000602082019050612ddd6000830184612db9565b92915050565b600080fd5b600067ffffffffffffffff821115612e0357612e02612a00565b5b612e0c8261283a565b9050602081019050919050565b82818337600083830152505050565b6000612e3b612e3684612de8565b612a60565b905082815260208101848484011115612e5757612e56612de3565b5b612e62848285612e19565b509392505050565b600082601f830112612e7f57612e7e6129fb565b5b8135612e8f848260208601612e28565b91505092915050565b60008060008060808587031215612eb257612eb1612726565b5b6000612ec08782880161297c565b9450506020612ed18782880161297c565b9350506040612ee2878288016128c7565b925050606085013567ffffffffffffffff811115612f0357612f0261272b565b5b612f0f87828801612e6a565b91505092959194509250565b60008060408385031215612f3257612f31612726565b5b6000612f408582860161297c565b9250506020612f518582860161297c565b9150509250929050565b7f4e487b7100000000000000000000000000000000000000000000000000000000600052602260045260246000fd5b60006002820490506001821680612fa257607f821691505b60208210811415612fb657612fb5612f5b565b5b50919050565b7f4552433732313a20617070726f76616c20746f2063757272656e74206f776e6560008201527f7200000000000000000000000000000000000000000000000000000000000000602082015250565b60006130186021836127f6565b915061302382612fbc565b604082019050919050565b600060208201905081810360008301526130478161300b565b9050919050565b7f4552433732313a20617070726f76652063616c6c6572206973206e6f7420746f60008201527f6b656e206f776e6572206f7220617070726f76656420666f7220616c6c000000602082015250565b60006130aa603d836127f6565b91506130b58261304e565b604082019050919050565b600060208201905081810360008301526130d98161309d565b9050919050565b60006040820190506130f5600083018561293b565b613102602083018461293b565b9392505050565b7f4552433732313a2063616c6c6572206973206e6f7420746f6b656e206f776e6560008201527f72206f7220617070726f76656400000000000000000000000000000000000000602082015250565b6000613165602d836127f6565b915061317082613109565b604082019050919050565b6000602082019050818103600083015261319481613158565b9050919050565b7f4e487b7100000000000000000000000000000000000000000000000000000000600052603260045260246000fd5b600081905092915050565b50565b60006131e56000836131ca565b91506131f0826131d5565b600082019050919050565b6000613206826131d8565b9150819050919050565b7f4552433732313a20696e76616c696420746f6b656e2049440000000000000000600082015250565b60006132466018836127f6565b915061325182613210565b602082019050919050565b6000602082019050818103600083015261327581613239565b9050919050565b7f4552433732313a2061646472657373207a65726f206973206e6f74206120766160008201527f6c6964206f776e65720000000000000000000000000000000000000000000000602082015250565b60006132d86029836127f6565b91506132e38261327c565b604082019050919050565b60006020820190508181036000830152613307816132cb565b9050919050565b7f4e487b7100000000000000000000000000000000000000000000000000000000600052601160045260246000fd5b6000613348826128a6565b9150613353836128a6565b9250827fffffffffffffffffffffffffffffffffffffffffffffffffffffffffffffffff038211156133885761338761330e565b5b828201905092915050565b600061339e826128a6565b91507fffffffffffffffffffffffffffffffffffffffffffffffffffffffffffffffff8214156133d1576133d061330e565b5b600182019050919050565b6000819050919050565b6133ef816133dc565b82525050565b600067ffffffffffffffff82169050919050565b613412816133f5565b82525050565b600061ffff82169050919050565b61342f81613418565b82525050565b600063ffffffff82169050919050565b61344e81613435565b82525050565b600060a08201905061346960008301886133e6565b6134766020830187613409565b6134836040830186613426565b6134906060830185613445565b61349d6080830184613445565b9695505050505050565b6000815190506134b6816128b0565b92915050565b6000602082840312156134d2576134d1612726565b5b60006134e0848285016134a7565b91505092915050565b600081905092915050565b60006134ff826127eb565b61350981856134e9565b9350613519818560208601612807565b80840191505092915050565b600061353182856134f4565b915061353d82846134f4565b91508190509392505050565b7f4f776e61626c653a206e6577206f776e657220697320746865207a65726f206160008201527f6464726573730000000000000000000000000000000000000000000000000000602082015250565b60006135a56026836127f6565b91506135b082613549565b604082019050919050565b600060208201905081810360008301526135d481613598565b9050919050565b7f4e487b7100000000000000000000000000000000000000000000000000000000600052601260045260246000fd5b6000613615826128a6565b9150613620836128a6565b9250826136305761362f6135db565b5b828206905092915050565b60006040820190506136506000830185612db9565b61365d602083018461293b565b9392505050565b7f4552433732313a207472616e736665722066726f6d20696e636f72726563742060008201527f6f776e6572000000000000000000000000000000000000000000000000000000602082015250565b60006136c06025836127f6565b91506136cb82613664565b604082019050919050565b600060208201905081810360008301526136ef816136b3565b9050919050565b7f4552433732313a207472616e7366657220746f20746865207a65726f2061646460008201527f7265737300000000000000000000000000000000000000000000000000000000602082015250565b60006137526024836127f6565b915061375d826136f6565b604082019050919050565b6000602082019050818103600083015261378181613745565b9050919050565b7f4f776e61626c653a2063616c6c6572206973206e6f7420746865206f776e6572600082015250565b60006137be6020836127f6565b91506137c982613788565b602082019050919050565b600060208201905081810360008301526137ed816137b1565b9050919050565b7f4552433732313a20617070726f766520746f2063616c6c657200000000000000600082015250565b600061382a6019836127f6565b9150613835826137f4565b602082019050919050565b600060208201905081810360008301526138598161381d565b9050919050565b7f4552433732313a207472616e7366657220746f206e6f6e20455243373231526560008201527f63656976657220696d706c656d656e7465720000000000000000000000000000602082015250565b60006138bc6032836127f6565b91506138c782613860565b604082019050919050565b600060208201905081810360008301526138eb816138af565b9050919050565b7f45524337323155524953746f726167653a2055524920736574206f66206e6f6e60008201527f6578697374656e7420746f6b656e000000000000000000000000000000000000602082015250565b600061394e602e836127f6565b9150613959826138f2565b604082019050919050565b6000602082019050818103600083015261397d81613941565b9050919050565b600061398f826128a6565b915061399a836128a6565b9250828210156139ad576139ac61330e565b5b828203905092915050565b600081519050919050565b600082825260208201905092915050565b60006139df826139b8565b6139e981856139c3565b93506139f9818560208601612807565b613a028161283a565b840191505092915050565b6000608082019050613a22600083018761293b565b613a2f602083018661293b565b613a3c60408301856129d1565b8181036060830152613a4e81846139d4565b905095945050505050565b600081519050613a688161275c565b92915050565b600060208284031215613a8457613a83612726565b5b6000613a9284828501613a59565b91505092915050565b7f4552433732313a206d696e7420746f20746865207a65726f2061646472657373600082015250565b6000613ad16020836127f6565b9150613adc82613a9b565b602082019050919050565b60006020820190508181036000830152613b0081613ac4565b9050919050565b7f4552433732313a20746f6b656e20616c7265616479206d696e74656400000000600082015250565b6000613b3d601c836127f6565b9150613b4882613b07565b602082019050919050565b60006020820190508181036000830152613b6c81613b30565b905091905056fea26469706673582212201202428b0de27e8c5859969a254dd9a052ce5d102be01bd0195be9442ea621da64736f6c63430008080033",
  "linkReferences": {},
  "deployedLinkReferences": {}
}