{
  "_format": "hh-sol-artifact-1",
  "contractName": "RandomIpfsNft",
  "sourceName": "contracts/ RandomIpfsNft.sol",
  "abi": [
    {
      "inputs": [
        {
          "internalType": "address",
          "name": "vrfCoordinatorV2",
          "type": "address"
        },
        {
          "internalType": "uint64",
          "name": "subscriptionId",
          "type": "uint64"
        },
        {
          "internalType": "bytes32",
          "name": "gasLane",
          "type": "bytes32"
        },
        {
          "internalType": "uint256",
          "name": "mintFee",
          "type": "uint256"
        },
        {
          "internalType": "uint32",
          "name": "callbackGasLimit",
          "type": "uint32"
        },
        {
          "internalType": "string[3]",
          "name": "dogTokenUris",
          "type": "string[3]"
        }
      ],
      "stateMutability": "nonpayable",
      "type": "constructor"
    },
    {
      "inputs": [
        {
          "internalType": "address",
          "name": "have",
          "type": "address"
        },
        {
          "internalType": "address",
          "name": "want",
          "type": "address"
        }
      ],
      "name": "OnlyCoordinatorCanFulfill",
      "type": "error"
    },
    {
      "inputs": [],
      "name": "RandomIpfsNft__NeedMoreETHSent",
      "type": "error"
    },
    {
      "inputs": [],
      "name": "RandomIpfsNft__RangeOutOfBounds",
      "type": "error"
    },
    {
      "inputs": [],
      "name": "RandomIpfsNft__TransferFailed",
      "type": "error"
    },
    {
      "anonymous": false,
      "inputs": [
        {
          "indexed": true,
          "internalType": "address",
          "name": "owner",
          "type": "address"
        },
        {
          "indexed": true,
          "internalType": "address",
          "name": "approved",
          "type": "address"
        },
        {
          "indexed": true,
          "internalType": "uint256",
          "name": "tokenId",
          "type": "uint256"
        }
      ],
      "name": "Approval",
      "type": "event"
    },
    {
      "anonymous": false,
      "inputs": [
        {
          "indexed": true,
          "internalType": "address",
          "name": "owner",
          "type": "address"
        },
        {
          "indexed": true,
          "internalType": "address",
          "name": "operator",
          "type": "address"
        },
        {
          "indexed": false,
          "internalType": "bool",
          "name": "approved",
          "type": "bool"
        }
      ],
      "name": "ApprovalForAll",
      "type": "event"
    },
    {
      "anonymous": false,
      "inputs": [
        {
          "indexed": false,
          "internalType": "enum RandomIpfsNft.Breed",
          "name": "dogBreed",
          "type": "uint8"
        },
        {
          "indexed": false,
          "internalType": "address",
          "name": "minter",
          "type": "address"
        }
      ],
      "name": "NftMinted",
      "type": "event"
    },
    {
      "anonymous": false,
      "inputs": [
        {
          "indexed": true,
          "internalType": "uint256",
          "name": "requestId",
          "type": "uint256"
        },
        {
          "indexed": false,
          "internalType": "address",
          "name": "requester",
          "type": "address"
        }
      ],
      "name": "NftRequested",
      "type": "event"
    },
    {
      "anonymous": false,
      "inputs": [
        {
          "indexed": true,
          "internalType": "address",
          "name": "previousOwner",
          "type": "address"
        },
        {
          "indexed": true,
          "internalType": "address",
          "name": "newOwner",
          "type": "address"
        }
      ],
      "name": "OwnershipTransferred",
      "type": "event"
    },
    {
      "anonymous": false,
      "inputs": [
        {
          "indexed": true,
          "internalType": "address",
          "name": "from",
          "type": "address"
        },
        {
          "indexed": true,
          "internalType": "address",
          "name": "to",
          "type": "address"
        },
        {
          "indexed": true,
          "internalType": "uint256",
          "name": "tokenId",
          "type": "uint256"
        }
      ],
      "name": "Transfer",
      "type": "event"
    },
    {
      "inputs": [
        {
          "internalType": "address",
          "name": "to",
          "type": "address"
        },
        {
          "internalType": "uint256",
          "name": "tokenId",
          "type": "uint256"
        }
      ],
      "name": "approve",
      "outputs": [],
      "stateMutability": "nonpayable",
      "type": "function"
    },
    {
      "inputs": [
        {
          "internalType": "address",
          "name": "owner",
          "type": "address"
        }
      ],
      "name": "balanceOf",
      "outputs": [
        {
          "internalType": "uint256",
          "name": "",
          "type": "uint256"
        }
      ],
      "stateMutability": "view",
      "type": "function"
    },
    {
      "inputs": [
        {
          "internalType": "uint256",
          "name": "tokenId",
          "type": "uint256"
        }
      ],
      "name": "getApproved",
      "outputs": [
        {
          "internalType": "address",
          "name": "",
          "type": "address"
        }
      ],
      "stateMutability": "view",
      "type": "function"
    },
    {
      "inputs": [
        {
          "internalType": "uint256",
          "name": "moddedRng",
          "type": "uint256"
        }
      ],
      "name": "getBreedFromModdedRng",
      "outputs": [
        {
          "internalType": "enum RandomIpfsNft.Breed",
          "name": "",
          "type": "uint8"
        }
      ],
      "stateMutability": "pure",
      "type": "function"
    },
    {
      "inputs": [],
      "name": "getChanceArray",
      "outputs": [
        {
          "internalType": "uint256[3]",
          "name": "",
          "type": "uint256[3]"
        }
      ],
      "stateMutability": "pure",
      "type": "function"
    },
    {
      "inputs": [
        {
          "internalType": "uint256",
          "name": "index",
          "type": "uint256"
        }
      ],
      "name": "getDogTokenUris",
      "outputs": [
        {
          "internalType": "string",
          "name": "",
          "type": "string"
        }
      ],
      "stateMutability": "view",
      "type": "function"
    },
    {
      "inputs": [],
      "name": "getMintFee",
      "outputs": [
        {
          "internalType": "uint256",
          "name": "",
          "type": "uint256"
        }
      ],
      "stateMutability": "view",
      "type": "function"
    },
    {
      "inputs": [],
      "name": "getTokenCounter",
      "outputs": [
        {
          "internalType": "uint256",
          "name": "",
          "type": "uint256"
        }
      ],
      "stateMutability": "view",
      "type": "function"
    },
    {
      "inputs": [
        {
          "internalType": "address",
          "name": "owner",
          "type": "address"
        },
        {
          "internalType": "address",
          "name": "operator",
          "type": "address"
        }
      ],
      "name": "isApprovedForAll",
      "outputs": [
        {
          "internalType": "bool",
          "name": "",
          "type": "bool"
        }
      ],
      "stateMutability": "view",
      "type": "function"
    },
    {
      "inputs": [],
      "name": "name",
      "outputs": [
        {
          "internalType": "string",
          "name": "",
          "type": "string"
        }
      ],
      "stateMutability": "view",
      "type": "function"
    },
    {
      "inputs": [],
      "name": "owner",
      "outputs": [
        {
          "internalType": "address",
          "name": "",
          "type": "address"
        }
      ],
      "stateMutability": "view",
      "type": "function"
    },
    {
      "inputs": [
        {
          "internalType": "uint256",
          "name": "tokenId",
          "type": "uint256"
        }
      ],
      "name": "ownerOf",
      "outputs": [
        {
          "internalType": "address",
          "name": "",
          "type": "address"
        }
      ],
      "stateMutability": "view",
      "type": "function"
    },
    {
      "inputs": [
        {
          "internalType": "uint256",
          "name": "requestId",
          "type": "uint256"
        },
        {
          "internalType": "uint256[]",
          "name": "randomWords",
          "type": "uint256[]"
        }
      ],
      "name": "rawFulfillRandomWords",
      "outputs": [],
      "stateMutability": "nonpayable",
      "type": "function"
    },
    {
      "inputs": [],
      "name": "renounceOwnership",
      "outputs": [],
      "stateMutability": "nonpayable",
      "type": "function"
    },
    {
      "inputs": [],
      "name": "requestNft",
      "outputs": [
        {
          "internalType": "uint256",
          "name": "requestId",
          "type": "uint256"
        }
      ],
      "stateMutability": "payable",
      "type": "function"
    },
    {
      "inputs": [
        {
          "internalType": "uint256",
          "name": "",
          "type": "uint256"
        }
      ],
      "name": "s_requestIdToSender",
      "outputs": [
        {
          "internalType": "address",
          "name": "",
          "type": "address"
        }
      ],
      "stateMutability": "view",
      "type": "function"
    },
    {
      "inputs": [],
      "name": "s_tokenCounter",
      "outputs": [
        {
          "internalType": "uint256",
          "name": "",
          "type": "uint256"
        }
      ],
      "stateMutability": "view",
      "type": "function"
    },
    {
      "inputs": [
        {
          "internalType": "address",
          "name": "from",
          "type": "address"
        },
        {
          "internalType": "address",
          "name": "to",
          "type": "address"
        },
        {
          "internalType": "uint256",
          "name": "tokenId",
          "type": "uint256"
        }
      ],
      "name": "safeTransferFrom",
      "outputs": [],
      "stateMutability": "nonpayable",
      "type": "function"
    },
    {
      "inputs": [
        {
          "internalType": "address",
          "name": "from",
          "type": "address"
        },
        {
          "internalType": "address",
          "name": "to",
          "type": "address"
        },
        {
          "internalType": "uint256",
          "name": "tokenId",
          "type": "uint256"
        },
        {
          "internalType": "bytes",
          "name": "data",
          "type": "bytes"
        }
      ],
      "name": "safeTransferFrom",
      "outputs": [],
      "stateMutability": "nonpayable",
      "type": "function"
    },
    {
      "inputs": [
        {
          "internalType": "address",
          "name": "operator",
          "type": "address"
        },
        {
          "internalType": "bool",
          "name": "approved",
          "type": "bool"
        }
      ],
      "name": "setApprovalForAll",
      "outputs": [],
      "stateMutability": "nonpayable",
      "type": "function"
    },
    {
      "inputs": [
        {
          "internalType": "bytes4",
          "name": "interfaceId",
          "type": "bytes4"
        }
      ],
      "name": "supportsInterface",
      "outputs": [
        {
          "internalType": "bool",
          "name": "",
          "type": "bool"
        }
      ],
      "stateMutability": "view",
      "type": "function"
    },
    {
      "inputs": [],
      "name": "symbol",
      "outputs": [
        {
          "internalType": "string",
          "name": "",
          "type": "string"
        }
      ],
      "stateMutability": "view",
      "type": "function"
    },
    {
      "inputs": [
        {
          "internalType": "uint256",
          "name": "tokenId",
          "type": "uint256"
        }
      ],
      "name": "tokenURI",
      "outputs": [
        {
          "internalType": "string",
          "name": "",
          "type": "string"
        }
      ],
      "stateMutability": "view",
      "type": "function"
    },
    {
      "inputs": [
        {
          "internalType": "address",
          "name": "from",
          "type": "address"
        },
        {
          "internalType": "address",
          "name": "to",
          "type": "address"
        },
        {
          "internalType": "uint256",
          "name": "tokenId",
          "type": "uint256"
        }
      ],
      "name": "transferFrom",
      "outputs": [],
      "stateMutability": "nonpayable",
      "type": "function"
    },
    {
      "inputs": [
        {
          "internalType": "address",
          "name": "newOwner",
          "type": "address"
        }
      ],
      "name": "transferOwnership",
      "outputs": [],
      "stateMutability": "nonpayable",
      "type": "function"
    },
    {
      "inputs": [],
      "name": "withdraw",
      "outputs": [],
      "stateMutability": "nonpayable",
      "type": "function"
    }
  ],
  "bytecode": "0x6101206040523480156200001257600080fd5b506040516200453f3803806200453f833981810160405281019062000038919062000809565b6040518060400160405280600f81526020017f52616e646f6d2049504653204e465400000000000000000000000000000000008152506040518060400160405280600381526020017f52494e0000000000000000000000000000000000000000000000000000000000815250878073ffffffffffffffffffffffffffffffffffffffff1660808173ffffffffffffffffffffffffffffffffffffffff1660601b81525050508160009080519060200190620000f59291906200029c565b5080600190805190602001906200010e9291906200029c565b5050506200013162000125620001ce60201b60201c565b620001d660201b60201c565b8573ffffffffffffffffffffffffffffffffffffffff1660a08173ffffffffffffffffffffffffffffffffffffffff1660601b815250508360e081815250508467ffffffffffffffff1660c08167ffffffffffffffff1660c01b815250508163ffffffff166101008163ffffffff1660e01b8152505080600a906003620001ba9291906200032d565b5082600b8190555050505050505062000929565b600033905090565b6000600760009054906101000a900473ffffffffffffffffffffffffffffffffffffffff16905081600760006101000a81548173ffffffffffffffffffffffffffffffffffffffff021916908373ffffffffffffffffffffffffffffffffffffffff1602179055508173ffffffffffffffffffffffffffffffffffffffff168173ffffffffffffffffffffffffffffffffffffffff167f8be0079c531659141344cd1fd0a4f28419497f9722a3daafe3b4186f6b6457e060405160405180910390a35050565b828054620002aa90620008f3565b90600052602060002090601f016020900481019282620002ce57600085556200031a565b82601f10620002e957805160ff19168380011785556200031a565b828001600101855582156200031a579182015b8281111562000319578251825591602001919060010190620002fc565b5b50905062000329919062000394565b5090565b82805482825590600052602060002090810192821562000381579160200282015b82811115620003805782518290805190602001906200036f9291906200029c565b50916020019190600101906200034e565b5b509050620003909190620003b3565b5090565b5b80821115620003af57600081600090555060010162000395565b5090565b5b80821115620003d75760008181620003cd9190620003db565b50600101620003b4565b5090565b508054620003e990620008f3565b6000825580601f10620003fd57506200041e565b601f0160209004906000526020600020908101906200041d919062000394565b5b50565b6000604051905090565b600080fd5b600080fd5b600073ffffffffffffffffffffffffffffffffffffffff82169050919050565b6000620004628262000435565b9050919050565b620004748162000455565b81146200048057600080fd5b50565b600081519050620004948162000469565b92915050565b600067ffffffffffffffff82169050919050565b620004b9816200049a565b8114620004c557600080fd5b50565b600081519050620004d981620004ae565b92915050565b6000819050919050565b620004f481620004df565b81146200050057600080fd5b50565b6000815190506200051481620004e9565b92915050565b6000819050919050565b6200052f816200051a565b81146200053b57600080fd5b50565b6000815190506200054f8162000524565b92915050565b600063ffffffff82169050919050565b620005708162000555565b81146200057c57600080fd5b50565b600081519050620005908162000565565b92915050565b600080fd5b6000601f19601f8301169050919050565b7f4e487b7100000000000000000000000000000000000000000000000000000000600052604160045260246000fd5b620005e6826200059b565b810181811067ffffffffffffffff82111715620006085762000607620005ac565b5b80604052505050565b60006200061d62000421565b90506200062b8282620005db565b919050565b600067ffffffffffffffff8211156200064e576200064d620005ac565b5b602082029050919050565b600080fd5b600080fd5b600067ffffffffffffffff821115620006815762000680620005ac565b5b6200068c826200059b565b9050602081019050919050565b60005b83811015620006b95780820151818401526020810190506200069c565b83811115620006c9576000848401525b50505050565b6000620006e6620006e08462000663565b62000611565b9050828152602081018484840111156200070557620007046200065e565b5b6200071284828562000699565b509392505050565b600082601f83011262000732576200073162000596565b5b815162000744848260208601620006cf565b91505092915050565b6000620007646200075e8462000630565b62000611565b9050806020840283018581111562000781576200078062000659565b5b835b81811015620007cf57805167ffffffffffffffff811115620007aa57620007a962000596565b5b808601620007b989826200071a565b8552602085019450505060208101905062000783565b5050509392505050565b600082601f830112620007f157620007f062000596565b5b6003620008008482856200074d565b91505092915050565b60008060008060008060c087890312156200082957620008286200042b565b5b60006200083989828a0162000483565b96505060206200084c89828a01620004c8565b95505060406200085f89828a0162000503565b94505060606200087289828a016200053e565b93505060806200088589828a016200057f565b92505060a087015167ffffffffffffffff811115620008a957620008a862000430565b5b620008b789828a01620007d9565b9150509295509295509295565b7f4e487b7100000000000000000000000000000000000000000000000000000000600052602260045260246000fd5b600060028204905060018216806200090c57607f821691505b60208210811415620009235762000922620008c4565b5b50919050565b60805160601c60a05160601c60c05160c01c60e0516101005160e01c613bbe620009816000396000610ff801526000610fb401526000610fd501526000610f7801526000818161091d01526109710152613bbe6000f3fe6080604052600436106101815760003560e01c806370a08231116100d1578063a36f573b1161008a578063b88d4fde11610064578063b88d4fde14610577578063c87b56dd146105a0578063e985e9c5146105dd578063f2fde38b1461061a57610181565b8063a36f573b146104df578063a51cccf31461051c578063aa1524911461055957610181565b806370a08231146103e1578063715018a61461041e5780637a5caab3146104355780638da5cb5b1461046057806395d89b411461048b578063a22cb465146104b657610181565b806323b872dd1161013e57806342842e0e1161011857806342842e0e146103255780635dacf5f41461034e5780636352211e146103795780636e02007d146103b657610181565b806323b872dd146102a85780633af25975146102d15780633ccfd60b1461030e57610181565b806301ffc9a71461018657806306fdde03146101c3578063081812fc146101ee578063095ea7b31461022b5780630b21a83b146102545780631fe543e31461027f575b600080fd5b34801561019257600080fd5b506101ad60048036038101906101a8919061279d565b610643565b6040516101ba91906127e5565b60405180910390f35b3480156101cf57600080fd5b506101d8610725565b6040516101e59190612899565b60405180910390f35b3480156101fa57600080fd5b50610215600480360381019061021091906128f1565b6107b7565b604051610222919061295f565b60405180910390f35b34801561023757600080fd5b50610252600480360381019061024d91906129a6565b6107fd565b005b34801561026057600080fd5b50610269610915565b60405161027691906129f5565b60405180910390f35b34801561028b57600080fd5b506102a660048036038101906102a19190612b58565b61091b565b005b3480156102b457600080fd5b506102cf60048036038101906102ca9190612bb4565b6109db565b005b3480156102dd57600080fd5b506102f860048036038101906102f391906128f1565b610a3b565b6040516103059190612899565b60405180910390f35b34801561031a57600080fd5b50610323610aeb565b005b34801561033157600080fd5b5061034c60048036038101906103479190612bb4565b610b9f565b005b34801561035a57600080fd5b50610363610bbf565b6040516103709190612cb2565b60405180910390f35b34801561038557600080fd5b506103a0600480360381019061039b91906128f1565b610bea565b6040516103ad919061295f565b60405180910390f35b3480156103c257600080fd5b506103cb610c71565b6040516103d891906129f5565b60405180910390f35b3480156103ed57600080fd5b5061040860048036038101906104039190612ccd565b610c7b565b60405161041591906129f5565b60405180910390f35b34801561042a57600080fd5b50610433610d33565b005b34801561044157600080fd5b5061044a610d47565b60405161045791906129f5565b60405180910390f35b34801561046c57600080fd5b50610475610d51565b604051610482919061295f565b60405180910390f35b34801561049757600080fd5b506104a0610d7b565b6040516104ad9190612899565b60405180910390f35b3480156104c257600080fd5b506104dd60048036038101906104d89190612d26565b610e0d565b005b3480156104eb57600080fd5b50610506600480360381019061050191906128f1565b610e23565b604051610513919061295f565b60405180910390f35b34801561052857600080fd5b50610543600480360381019061053e91906128f1565b610e56565b6040516105509190612ddd565b60405180910390f35b610561610f38565b60405161056e91906129f5565b60405180910390f35b34801561058357600080fd5b5061059e60048036038101906105999190612ead565b61111a565b005b3480156105ac57600080fd5b506105c760048036038101906105c291906128f1565b61117c565b6040516105d49190612899565b60405180910390f35b3480156105e957600080fd5b5061060460048036038101906105ff9190612f30565b61128f565b60405161061191906127e5565b60405180910390f35b34801561062657600080fd5b50610641600480360381019061063c9190612ccd565b611323565b005b60007f80ac58cd000000000000000000000000000000000000000000000000000000007bffffffffffffffffffffffffffffffffffffffffffffffffffffffff1916827bffffffffffffffffffffffffffffffffffffffffffffffffffffffff1916148061070e57507f5b5e139f000000000000000000000000000000000000000000000000000000007bffffffffffffffffffffffffffffffffffffffffffffffffffffffff1916827bffffffffffffffffffffffffffffffffffffffffffffffffffffffff1916145b8061071e575061071d826113a7565b5b9050919050565b60606000805461073490612f9f565b80601f016020809104026020016040519081016040528092919081815260200182805461076090612f9f565b80156107ad5780601f10610782576101008083540402835291602001916107ad565b820191906000526020600020905b81548152906001019060200180831161079057829003601f168201915b5050505050905090565b60006107c282611411565b6004600083815260200190815260200160002060009054906101000a900473ffffffffffffffffffffffffffffffffffffffff169050919050565b600061080882610bea565b90508073ffffffffffffffffffffffffffffffffffffffff168373ffffffffffffffffffffffffffffffffffffffff161415610879576040517f08c379a000000000000000000000000000000000000000000000000000000000815260040161087090613043565b60405180910390fd5b8073ffffffffffffffffffffffffffffffffffffffff1661089861145c565b73ffffffffffffffffffffffffffffffffffffffff1614806108c757506108c6816108c161145c565b61128f565b5b610906576040517f08c379a00000000000000000000000000000000000000000000000000000000081526004016108fd906130d5565b60405180910390fd5b6109108383611464565b505050565b60095481565b7f000000000000000000000000000000000000000000000000000000000000000073ffffffffffffffffffffffffffffffffffffffff163373ffffffffffffffffffffffffffffffffffffffff16146109cd57337f00000000000000000000000000000000000000000000000000000000000000006040517f1cf993f40000000000000000000000000000000000000000000000000000000081526004016109c49291906130f5565b60405180910390fd5b6109d7828261151d565b5050565b6109ec6109e661145c565b826116b7565b610a2b576040517f08c379a0000000000000000000000000000000000000000000000000000000008152600401610a2290613190565b60405180910390fd5b610a3683838361174c565b505050565b6060600a8281548110610a5157610a506131b0565b5b906000526020600020018054610a6690612f9f565b80601f0160208091040260200160405190810160405280929190818152602001828054610a9290612f9f565b8015610adf5780601f10610ab457610100808354040283529160200191610adf565b820191906000526020600020905b815481529060010190602001808311610ac257829003601f168201915b50505050509050919050565b610af3611a46565b600047905060003373ffffffffffffffffffffffffffffffffffffffff1682604051610b1e90613210565b60006040518083038185875af1925050503d8060008114610b5b576040519150601f19603f3d011682016040523d82523d6000602084013e610b60565b606091505b5050905080610b9b576040517fca7e25b700000000000000000000000000000000000000000000000000000000815260040160405180910390fd5b5050565b610bba8383836040518060200160405280600081525061111a565b505050565b610bc761266c565b6040518060600160405280600a8152602001601e81526020016064815250905090565b600080610bf683611ac4565b9050600073ffffffffffffffffffffffffffffffffffffffff168173ffffffffffffffffffffffffffffffffffffffff161415610c68576040517f08c379a0000000000000000000000000000000000000000000000000000000008152600401610c5f90613271565b60405180910390fd5b80915050919050565b6000600954905090565b60008073ffffffffffffffffffffffffffffffffffffffff168273ffffffffffffffffffffffffffffffffffffffff161415610cec576040517f08c379a0000000000000000000000000000000000000000000000000000000008152600401610ce390613303565b60405180910390fd5b600360008373ffffffffffffffffffffffffffffffffffffffff1673ffffffffffffffffffffffffffffffffffffffff168152602001908152602001600020549050919050565b610d3b611a46565b610d456000611b01565b565b6000600b54905090565b6000600760009054906101000a900473ffffffffffffffffffffffffffffffffffffffff16905090565b606060018054610d8a90612f9f565b80601f0160208091040260200160405190810160405280929190818152602001828054610db690612f9f565b8015610e035780601f10610dd857610100808354040283529160200191610e03565b820191906000526020600020905b815481529060010190602001808311610de657829003601f168201915b5050505050905090565b610e1f610e1861145c565b8383611bc7565b5050565b60086020528060005260406000206000915054906101000a900473ffffffffffffffffffffffffffffffffffffffff1681565b600080600090506000610e67610bbf565b905060005b6003811015610f0057828510158015610ea65750818160038110610e9357610e926131b0565b5b602002015183610ea39190613352565b85105b15610ec857806002811115610ebe57610ebd612d66565b5b9350505050610f33565b818160038110610edb57610eda6131b0565b5b602002015183610eeb9190613352565b92508080610ef8906133a8565b915050610e6c565b506040517f12806c9d00000000000000000000000000000000000000000000000000000000815260040160405180910390fd5b919050565b6000600b54341015610f76576040517fb90f491000000000000000000000000000000000000000000000000000000000815260040160405180910390fd5b7f000000000000000000000000000000000000000000000000000000000000000073ffffffffffffffffffffffffffffffffffffffff16635d3b1d307f00000000000000000000000000000000000000000000000000000000000000007f000000000000000000000000000000000000000000000000000000000000000060037f000000000000000000000000000000000000000000000000000000000000000060016040518663ffffffff1660e01b8152600401611039959493929190613469565b602060405180830381600087803b15801561105357600080fd5b505af1158015611067573d6000803e3d6000fd5b505050506040513d601f19601f8201168201806040525081019061108b91906134d1565b9050336008600083815260200190815260200160002060006101000a81548173ffffffffffffffffffffffffffffffffffffffff021916908373ffffffffffffffffffffffffffffffffffffffff160217905550807ff873236e6cc0ecc5be1a9a35c95ee5b8d1ac4cc7bfef0cc5060391d6cc98e26b3360405161110f919061295f565b60405180910390a290565b61112b61112561145c565b836116b7565b61116a576040517f08c379a000000000000000000000000000000000000000000000000000000000815260040161116190613190565b60405180910390fd5b61117684848484611d34565b50505050565b606061118782611411565b60006006600084815260200190815260200160002080546111a790612f9f565b80601f01602080910402602001604051908101604052809291908181526020018280546111d390612f9f565b80156112205780601f106111f557610100808354040283529160200191611220565b820191906000526020600020905b81548152906001019060200180831161120357829003601f168201915b505050505090506000611231611d90565b905060008151141561124757819250505061128a565b60008251111561127c57808260405160200161126492919061353a565b6040516020818303038152906040529250505061128a565b61128584611da7565b925050505b919050565b6000600560008473ffffffffffffffffffffffffffffffffffffffff1673ffffffffffffffffffffffffffffffffffffffff16815260200190815260200160002060008373ffffffffffffffffffffffffffffffffffffffff1673ffffffffffffffffffffffffffffffffffffffff16815260200190815260200160002060009054906101000a900460ff16905092915050565b61132b611a46565b600073ffffffffffffffffffffffffffffffffffffffff168173ffffffffffffffffffffffffffffffffffffffff16141561139b576040517f08c379a0000000000000000000000000000000000000000000000000000000008152600401611392906135d0565b60405180910390fd5b6113a481611b01565b50565b60007f01ffc9a7000000000000000000000000000000000000000000000000000000007bffffffffffffffffffffffffffffffffffffffffffffffffffffffff1916827bffffffffffffffffffffffffffffffffffffffffffffffffffffffff1916149050919050565b61141a81611e0f565b611459576040517f08c379a000000000000000000000000000000000000000000000000000000000815260040161145090613271565b60405180910390fd5b50565b600033905090565b816004600083815260200190815260200160002060006101000a81548173ffffffffffffffffffffffffffffffffffffffff021916908373ffffffffffffffffffffffffffffffffffffffff160217905550808273ffffffffffffffffffffffffffffffffffffffff166114d783610bea565b73ffffffffffffffffffffffffffffffffffffffff167f8c5be1e5ebec7d5bd14f71427d1e84f3dd0314c0f7b2291e5b200ac8c7c3b92560405160405180910390a45050565b60006008600084815260200190815260200160002060009054906101000a900473ffffffffffffffffffffffffffffffffffffffff169050600060095490506000606484600081518110611574576115736131b0565b5b6020026020010151611586919061361f565b9050600061159382610e56565b905060016009546115a49190613352565b6009819055506115b48484611e50565b61167683600a8360028111156115cd576115cc612d66565b5b815481106115de576115dd6131b0565b5b9060005260206000200180546115f390612f9f565b80601f016020809104026020016040519081016040528092919081815260200182805461161f90612f9f565b801561166c5780601f106116415761010080835404028352916020019161166c565b820191906000526020600020905b81548152906001019060200180831161164f57829003601f168201915b5050505050611e6e565b7f8a269f26b688e110e9cbd887d163dab35cae678fa353a0292de532c0cac1ecdc81856040516116a7929190613650565b60405180910390a1505050505050565b6000806116c383610bea565b90508073ffffffffffffffffffffffffffffffffffffffff168473ffffffffffffffffffffffffffffffffffffffff1614806117055750611704818561128f565b5b8061174357508373ffffffffffffffffffffffffffffffffffffffff1661172b846107b7565b73ffffffffffffffffffffffffffffffffffffffff16145b91505092915050565b8273ffffffffffffffffffffffffffffffffffffffff1661176c82610bea565b73ffffffffffffffffffffffffffffffffffffffff16146117c2576040517f08c379a00000000000000000000000000000000000000000000000000000000081526004016117b9906136eb565b60405180910390fd5b600073ffffffffffffffffffffffffffffffffffffffff168273ffffffffffffffffffffffffffffffffffffffff161415611832576040517f08c379a00000000000000000000000000000000000000000000000000000000081526004016118299061377d565b60405180910390fd5b61183f8383836001611ee2565b8273ffffffffffffffffffffffffffffffffffffffff1661185f82610bea565b73ffffffffffffffffffffffffffffffffffffffff16146118b5576040517f08c379a00000000000000000000000000000000000000000000000000000000081526004016118ac906136eb565b60405180910390fd5b6004600082815260200190815260200160002060006101000a81549073ffffffffffffffffffffffffffffffffffffffff02191690556001600360008573ffffffffffffffffffffffffffffffffffffffff1673ffffffffffffffffffffffffffffffffffffffff168152602001908152602001600020600082825403925050819055506001600360008473ffffffffffffffffffffffffffffffffffffffff1673ffffffffffffffffffffffffffffffffffffffff16815260200190815260200160002060008282540192505081905550816002600083815260200190815260200160002060006101000a81548173ffffffffffffffffffffffffffffffffffffffff021916908373ffffffffffffffffffffffffffffffffffffffff160217905550808273ffffffffffffffffffffffffffffffffffffffff168473ffffffffffffffffffffffffffffffffffffffff167fddf252ad1be2c89b69c2b068fc378daa952ba7f163c4a11628f55a4df523b3ef60405160405180910390a4611a418383836001612008565b505050565b611a4e61145c565b73ffffffffffffffffffffffffffffffffffffffff16611a6c610d51565b73ffffffffffffffffffffffffffffffffffffffff1614611ac2576040517f08c379a0000000000000000000000000000000000000000000000000000000008152600401611ab9906137e9565b60405180910390fd5b565b60006002600083815260200190815260200160002060009054906101000a900473ffffffffffffffffffffffffffffffffffffffff169050919050565b6000600760009054906101000a900473ffffffffffffffffffffffffffffffffffffffff16905081600760006101000a81548173ffffffffffffffffffffffffffffffffffffffff021916908373ffffffffffffffffffffffffffffffffffffffff1602179055508173ffffffffffffffffffffffffffffffffffffffff168173ffffffffffffffffffffffffffffffffffffffff167f8be0079c531659141344cd1fd0a4f28419497f9722a3daafe3b4186f6b6457e060405160405180910390a35050565b8173ffffffffffffffffffffffffffffffffffffffff168373ffffffffffffffffffffffffffffffffffffffff161415611c36576040517f08c379a0000000000000000000000000000000000000000000000000000000008152600401611c2d90613855565b60405180910390fd5b80600560008573ffffffffffffffffffffffffffffffffffffffff1673ffffffffffffffffffffffffffffffffffffffff16815260200190815260200160002060008473ffffffffffffffffffffffffffffffffffffffff1673ffffffffffffffffffffffffffffffffffffffff16815260200190815260200160002060006101000a81548160ff0219169083151502179055508173ffffffffffffffffffffffffffffffffffffffff168373ffffffffffffffffffffffffffffffffffffffff167f17307eab39ab6107e8899845ad3d59bd9653f200f220920489ca2b5937696c3183604051611d2791906127e5565b60405180910390a3505050565b611d3f84848461174c565b611d4b8484848461200e565b611d8a576040517f08c379a0000000000000000000000000000000000000000000000000000000008152600401611d81906138e7565b60405180910390fd5b50505050565b606060405180602001604052806000815250905090565b6060611db282611411565b6000611dbc611d90565b90506000815111611ddc5760405180602001604052806000815250611e07565b80611de6846121a5565b604051602001611df792919061353a565b6040516020818303038152906040525b915050919050565b60008073ffffffffffffffffffffffffffffffffffffffff16611e3183611ac4565b73ffffffffffffffffffffffffffffffffffffffff1614159050919050565b611e6a82826040518060200160405280600081525061227d565b5050565b611e7782611e0f565b611eb6576040517f08c379a0000000000000000000000000000000000000000000000000000000008152600401611ead90613979565b60405180910390fd5b80600660008481526020019081526020016000209080519060200190611edd92919061268e565b505050565b600181111561200257600073ffffffffffffffffffffffffffffffffffffffff168473ffffffffffffffffffffffffffffffffffffffff1614611f765780600360008673ffffffffffffffffffffffffffffffffffffffff1673ffffffffffffffffffffffffffffffffffffffff1681526020019081526020016000206000828254611f6e9190613999565b925050819055505b600073ffffffffffffffffffffffffffffffffffffffff168373ffffffffffffffffffffffffffffffffffffffff16146120015780600360008573ffffffffffffffffffffffffffffffffffffffff1673ffffffffffffffffffffffffffffffffffffffff1681526020019081526020016000206000828254611ff99190613352565b925050819055505b5b50505050565b50505050565b600061202f8473ffffffffffffffffffffffffffffffffffffffff166122d8565b15612198578373ffffffffffffffffffffffffffffffffffffffff1663150b7a0261205861145c565b8786866040518563ffffffff1660e01b815260040161207a9493929190613a22565b602060405180830381600087803b15801561209457600080fd5b505af19250505080156120c557506040513d601f19601f820116820180604052508101906120c29190613a83565b60015b612148573d80600081146120f5576040519150601f19603f3d011682016040523d82523d6000602084013e6120fa565b606091505b50600081511415612140576040517f08c379a0000000000000000000000000000000000000000000000000000000008152600401612137906138e7565b60405180910390fd5b805181602001fd5b63150b7a0260e01b7bffffffffffffffffffffffffffffffffffffffffffffffffffffffff1916817bffffffffffffffffffffffffffffffffffffffffffffffffffffffff19161491505061219d565b600190505b949350505050565b6060600060016121b4846122fb565b01905060008167ffffffffffffffff8111156121d3576121d2612a15565b5b6040519080825280601f01601f1916602001820160405280156122055781602001600182028036833780820191505090505b509050600082602001820190505b600115612272578080600190039150507f3031323334353637383961626364656600000000000000000000000000000000600a86061a8153600a858161225c5761225b6135f0565b5b049450600085141561226d57612272565b612213565b819350505050919050565b612287838361244e565b612294600084848461200e565b6122d3576040517f08c379a00000000000000000000000000000000000000000000000000000000081526004016122ca906138e7565b60405180910390fd5b505050565b6000808273ffffffffffffffffffffffffffffffffffffffff163b119050919050565b600080600090507a184f03e93ff9f4daa797ed6e38ed64bf6a1f0100000000000000008310612359577a184f03e93ff9f4daa797ed6e38ed64bf6a1f010000000000000000838161234f5761234e6135f0565b5b0492506040810190505b6d04ee2d6d415b85acef81000000008310612396576d04ee2d6d415b85acef8100000000838161238c5761238b6135f0565b5b0492506020810190505b662386f26fc1000083106123c557662386f26fc1000083816123bb576123ba6135f0565b5b0492506010810190505b6305f5e10083106123ee576305f5e10083816123e4576123e36135f0565b5b0492506008810190505b6127108310612413576127108381612409576124086135f0565b5b0492506004810190505b60648310612436576064838161242c5761242b6135f0565b5b0492506002810190505b600a8310612445576001810190505b80915050919050565b600073ffffffffffffffffffffffffffffffffffffffff168273ffffffffffffffffffffffffffffffffffffffff1614156124be576040517f08c379a00000000000000000000000000000000000000000000000000000000081526004016124b590613afc565b60405180910390fd5b6124c781611e0f565b15612507576040517f08c379a00000000000000000000000000000000000000000000000000000000081526004016124fe90613b68565b60405180910390fd5b612515600083836001611ee2565b61251e81611e0f565b1561255e576040517f08c379a000000000000000000000000000000000000000000000000000000000815260040161255590613b68565b60405180910390fd5b6001600360008473ffffffffffffffffffffffffffffffffffffffff1673ffffffffffffffffffffffffffffffffffffffff16815260200190815260200160002060008282540192505081905550816002600083815260200190815260200160002060006101000a81548173ffffffffffffffffffffffffffffffffffffffff021916908373ffffffffffffffffffffffffffffffffffffffff160217905550808273ffffffffffffffffffffffffffffffffffffffff16600073ffffffffffffffffffffffffffffffffffffffff167fddf252ad1be2c89b69c2b068fc378daa952ba7f163c4a11628f55a4df523b3ef60405160405180910390a4612668600083836001612008565b5050565b6040518060600160405280600390602082028036833780820191505090505090565b82805461269a90612f9f565b90600052602060002090601f0160209004810192826126bc5760008555612703565b82601f106126d557805160ff1916838001178555612703565b82800160010185558215612703579182015b828111156127025782518255916020019190600101906126e7565b5b5090506127109190612714565b5090565b5b8082111561272d576000816000905550600101612715565b5090565b6000604051905090565b600080fd5b600080fd5b60007fffffffff0000000000000000000000000000000000000000000000000000000082169050919050565b61277a81612745565b811461278557600080fd5b50565b60008135905061279781612771565b92915050565b6000602082840312156127b3576127b261273b565b5b60006127c184828501612788565b91505092915050565b60008115159050919050565b6127df816127ca565b82525050565b60006020820190506127fa60008301846127d6565b92915050565b600081519050919050565b600082825260208201905092915050565b60005b8381101561283a57808201518184015260208101905061281f565b83811115612849576000848401525b50505050565b6000601f19601f8301169050919050565b600061286b82612800565b612875818561280b565b935061288581856020860161281c565b61288e8161284f565b840191505092915050565b600060208201905081810360008301526128b38184612860565b905092915050565b6000819050919050565b6128ce816128bb565b81146128d957600080fd5b50565b6000813590506128eb816128c5565b92915050565b6000602082840312156129075761290661273b565b5b6000612915848285016128dc565b91505092915050565b600073ffffffffffffffffffffffffffffffffffffffff82169050919050565b60006129498261291e565b9050919050565b6129598161293e565b82525050565b60006020820190506129746000830184612950565b92915050565b6129838161293e565b811461298e57600080fd5b50565b6000813590506129a08161297a565b92915050565b600080604083850312156129bd576129bc61273b565b5b60006129cb85828601612991565b92505060206129dc858286016128dc565b9150509250929050565b6129ef816128bb565b82525050565b6000602082019050612a0a60008301846129e6565b92915050565b600080fd5b7f4e487b7100000000000000000000000000000000000000000000000000000000600052604160045260246000fd5b612a4d8261284f565b810181811067ffffffffffffffff82111715612a6c57612a6b612a15565b5b80604052505050565b6000612a7f612731565b9050612a8b8282612a44565b919050565b600067ffffffffffffffff821115612aab57612aaa612a15565b5b602082029050602081019050919050565b600080fd5b6000612ad4612acf84612a90565b612a75565b90508083825260208201905060208402830185811115612af757612af6612abc565b5b835b81811015612b205780612b0c88826128dc565b845260208401935050602081019050612af9565b5050509392505050565b600082601f830112612b3f57612b3e612a10565b5b8135612b4f848260208601612ac1565b91505092915050565b60008060408385031215612b6f57612b6e61273b565b5b6000612b7d858286016128dc565b925050602083013567ffffffffffffffff811115612b9e57612b9d612740565b5b612baa85828601612b2a565b9150509250929050565b600080600060608486031215612bcd57612bcc61273b565b5b6000612bdb86828701612991565b9350506020612bec86828701612991565b9250506040612bfd868287016128dc565b9150509250925092565b600060039050919050565b600081905092915050565b6000819050919050565b612c30816128bb565b82525050565b6000612c428383612c27565b60208301905092915050565b6000602082019050919050565b612c6481612c07565b612c6e8184612c12565b9250612c7982612c1d565b8060005b83811015612caa578151612c918782612c36565b9650612c9c83612c4e565b925050600181019050612c7d565b505050505050565b6000606082019050612cc76000830184612c5b565b92915050565b600060208284031215612ce357612ce261273b565b5b6000612cf184828501612991565b91505092915050565b612d03816127ca565b8114612d0e57600080fd5b50565b600081359050612d2081612cfa565b92915050565b60008060408385031215612d3d57612d3c61273b565b5b6000612d4b85828601612991565b9250506020612d5c85828601612d11565b9150509250929050565b7f4e487b7100000000000000000000000000000000000000000000000000000000600052602160045260246000fd5b60038110612da657612da5612d66565b5b50565b6000819050612db782612d95565b919050565b6000612dc782612da9565b9050919050565b612dd781612dbc565b82525050565b6000602082019050612df26000830184612dce565b92915050565b600080fd5b600067ffffffffffffffff821115612e1857612e17612a15565b5b612e218261284f565b9050602081019050919050565b82818337600083830152505050565b6000612e50612e4b84612dfd565b612a75565b905082815260208101848484011115612e6c57612e6b612df8565b5b612e77848285612e2e565b509392505050565b600082601f830112612e9457612e93612a10565b5b8135612ea4848260208601612e3d565b91505092915050565b60008060008060808587031215612ec757612ec661273b565b5b6000612ed587828801612991565b9450506020612ee687828801612991565b9350506040612ef7878288016128dc565b925050606085013567ffffffffffffffff811115612f1857612f17612740565b5b612f2487828801612e7f565b91505092959194509250565b60008060408385031215612f4757612f4661273b565b5b6000612f5585828601612991565b9250506020612f6685828601612991565b9150509250929050565b7f4e487b7100000000000000000000000000000000000000000000000000000000600052602260045260246000fd5b60006002820490506001821680612fb757607f821691505b60208210811415612fcb57612fca612f70565b5b50919050565b7f4552433732313a20617070726f76616c20746f2063757272656e74206f776e6560008201527f7200000000000000000000000000000000000000000000000000000000000000602082015250565b600061302d60218361280b565b915061303882612fd1565b604082019050919050565b6000602082019050818103600083015261305c81613020565b9050919050565b7f4552433732313a20617070726f76652063616c6c6572206973206e6f7420746f60008201527f6b656e206f776e6572206f7220617070726f76656420666f7220616c6c000000602082015250565b60006130bf603d8361280b565b91506130ca82613063565b604082019050919050565b600060208201905081810360008301526130ee816130b2565b9050919050565b600060408201905061310a6000830185612950565b6131176020830184612950565b9392505050565b7f4552433732313a2063616c6c6572206973206e6f7420746f6b656e206f776e6560008201527f72206f7220617070726f76656400000000000000000000000000000000000000602082015250565b600061317a602d8361280b565b91506131858261311e565b604082019050919050565b600060208201905081810360008301526131a98161316d565b9050919050565b7f4e487b7100000000000000000000000000000000000000000000000000000000600052603260045260246000fd5b600081905092915050565b50565b60006131fa6000836131df565b9150613205826131ea565b600082019050919050565b600061321b826131ed565b9150819050919050565b7f4552433732313a20696e76616c696420746f6b656e2049440000000000000000600082015250565b600061325b60188361280b565b915061326682613225565b602082019050919050565b6000602082019050818103600083015261328a8161324e565b9050919050565b7f4552433732313a2061646472657373207a65726f206973206e6f74206120766160008201527f6c6964206f776e65720000000000000000000000000000000000000000000000602082015250565b60006132ed60298361280b565b91506132f882613291565b604082019050919050565b6000602082019050818103600083015261331c816132e0565b9050919050565b7f4e487b7100000000000000000000000000000000000000000000000000000000600052601160045260246000fd5b600061335d826128bb565b9150613368836128bb565b9250827fffffffffffffffffffffffffffffffffffffffffffffffffffffffffffffffff0382111561339d5761339c613323565b5b828201905092915050565b60006133b3826128bb565b91507fffffffffffffffffffffffffffffffffffffffffffffffffffffffffffffffff8214156133e6576133e5613323565b5b600182019050919050565b6000819050919050565b613404816133f1565b82525050565b600067ffffffffffffffff82169050919050565b6134278161340a565b82525050565b600061ffff82169050919050565b6134448161342d565b82525050565b600063ffffffff82169050919050565b6134638161344a565b82525050565b600060a08201905061347e60008301886133fb565b61348b602083018761341e565b613498604083018661343b565b6134a5606083018561345a565b6134b2608083018461345a565b9695505050505050565b6000815190506134cb816128c5565b92915050565b6000602082840312156134e7576134e661273b565b5b60006134f5848285016134bc565b91505092915050565b600081905092915050565b600061351482612800565b61351e81856134fe565b935061352e81856020860161281c565b80840191505092915050565b60006135468285613509565b91506135528284613509565b91508190509392505050565b7f4f776e61626c653a206e6577206f776e657220697320746865207a65726f206160008201527f6464726573730000000000000000000000000000000000000000000000000000602082015250565b60006135ba60268361280b565b91506135c58261355e565b604082019050919050565b600060208201905081810360008301526135e9816135ad565b9050919050565b7f4e487b7100000000000000000000000000000000000000000000000000000000600052601260045260246000fd5b600061362a826128bb565b9150613635836128bb565b925082613645576136446135f0565b5b828206905092915050565b60006040820190506136656000830185612dce565b6136726020830184612950565b9392505050565b7f4552433732313a207472616e736665722066726f6d20696e636f72726563742060008201527f6f776e6572000000000000000000000000000000000000000000000000000000602082015250565b60006136d560258361280b565b91506136e082613679565b604082019050919050565b60006020820190508181036000830152613704816136c8565b9050919050565b7f4552433732313a207472616e7366657220746f20746865207a65726f2061646460008201527f7265737300000000000000000000000000000000000000000000000000000000602082015250565b600061376760248361280b565b91506137728261370b565b604082019050919050565b600060208201905081810360008301526137968161375a565b9050919050565b7f4f776e61626c653a2063616c6c6572206973206e6f7420746865206f776e6572600082015250565b60006137d360208361280b565b91506137de8261379d565b602082019050919050565b60006020820190508181036000830152613802816137c6565b9050919050565b7f4552433732313a20617070726f766520746f2063616c6c657200000000000000600082015250565b600061383f60198361280b565b915061384a82613809565b602082019050919050565b6000602082019050818103600083015261386e81613832565b9050919050565b7f4552433732313a207472616e7366657220746f206e6f6e20455243373231526560008201527f63656976657220696d706c656d656e7465720000000000000000000000000000602082015250565b60006138d160328361280b565b91506138dc82613875565b604082019050919050565b60006020820190508181036000830152613900816138c4565b9050919050565b7f45524337323155524953746f726167653a2055524920736574206f66206e6f6e60008201527f6578697374656e7420746f6b656e000000000000000000000000000000000000602082015250565b6000613963602e8361280b565b915061396e82613907565b604082019050919050565b6000602082019050818103600083015261399281613956565b9050919050565b60006139a4826128bb565b91506139af836128bb565b9250828210156139c2576139c1613323565b5b828203905092915050565b600081519050919050565b600082825260208201905092915050565b60006139f4826139cd565b6139fe81856139d8565b9350613a0e81856020860161281c565b613a178161284f565b840191505092915050565b6000608082019050613a376000830187612950565b613a446020830186612950565b613a5160408301856129e6565b8181036060830152613a6381846139e9565b905095945050505050565b600081519050613a7d81612771565b92915050565b600060208284031215613a9957613a9861273b565b5b6000613aa784828501613a6e565b91505092915050565b7f4552433732313a206d696e7420746f20746865207a65726f2061646472657373600082015250565b6000613ae660208361280b565b9150613af182613ab0565b602082019050919050565b60006020820190508181036000830152613b1581613ad9565b9050919050565b7f4552433732313a20746f6b656e20616c7265616479206d696e74656400000000600082015250565b6000613b52601c8361280b565b9150613b5d82613b1c565b602082019050919050565b60006020820190508181036000830152613b8181613b45565b905091905056fea264697066735822122085bc3e8b0aba67fd91a47868920d9af97aa6ab5ab6df14b3dd5102f4124d917264736f6c63430008080033",
  "linkReferences": {},
  "deployedLinkReferences": {}
}