{
  "_format": "hh-sol-artifact-1",
  "contractName": "Raffle",
  "sourceName": "contracts/Raffle.sol",
  "abi": [
    {
      "inputs": [
        {
          "internalType": "address",
          "name": "vrfCoordinatorV2",
          "type": "address"
        },
        {
          "internalType": "uint256",
          "name": "entranceFee",
          "type": "uint256"
        },
        {
          "internalType": "bytes32",
          "name": "gasLane",
          "type": "bytes32"
        },
        {
          "internalType": "uint64",
          "name": "subscriptionId",
          "type": "uint64"
        },
        {
          "internalType": "uint32",
          "name": "callbackGasLimit",
          "type": "uint32"
        },
        {
          "internalType": "uint256",
          "name": "interval",
          "type": "uint256"
        }
      ],
      "stateMutability": "nonpayable",
      "type": "constructor"
    },
    {
      "inputs": [
        {
          "internalType": "address",
          "name": "have",
          "type": "address"
        },
        {
          "internalType": "address",
          "name": "want",
          "type": "address"
        }
      ],
      "name": "OnlyCoordinatorCanFulfill",
      "type": "error"
    },
    {
      "inputs": [],
      "name": "Raffle__NotEnoughETHEntered",
      "type": "error"
    },
    {
      "inputs": [],
      "name": "Raffle__NotOpen",
      "type": "error"
    },
    {
      "inputs": [],
      "name": "Raffle__TransferFailed",
      "type": "error"
    },
    {
      "inputs": [
        {
          "internalType": "uint256",
          "name": "currentBalance",
          "type": "uint256"
        },
        {
          "internalType": "uint256",
          "name": "numPlayers",
          "type": "uint256"
        },
        {
          "internalType": "uint256",
          "name": "raffleState",
          "type": "uint256"
        }
      ],
      "name": "Raffle__UpkeepNotNeeded",
      "type": "error"
    },
    {
      "anonymous": false,
      "inputs": [
        {
          "indexed": true,
          "internalType": "address",
          "name": "player",
          "type": "address"
        }
      ],
      "name": "RaffleEnter",
      "type": "event"
    },
    {
      "anonymous": false,
      "inputs": [
        {
          "indexed": true,
          "internalType": "uint256",
          "name": "requestId",
          "type": "uint256"
        }
      ],
      "name": "RequestedRaffleWinner",
      "type": "event"
    },
    {
      "anonymous": false,
      "inputs": [
        {
          "indexed": true,
          "internalType": "address",
          "name": "winner",
          "type": "address"
        }
      ],
      "name": "WinnerPicked",
      "type": "event"
    },
    {
      "inputs": [
        {
          "internalType": "bytes",
          "name": "",
          "type": "bytes"
        }
      ],
      "name": "checkUpkeep",
      "outputs": [
        {
          "internalType": "bool",
          "name": "upkeepNeeded",
          "type": "bool"
        },
        {
          "internalType": "bytes",
          "name": "",
          "type": "bytes"
        }
      ],
      "stateMutability": "view",
      "type": "function"
    },
    {
      "inputs": [],
      "name": "enterRaffle",
      "outputs": [],
      "stateMutability": "payable",
      "type": "function"
    },
    {
      "inputs": [],
      "name": "getEntranceFee",
      "outputs": [
        {
          "internalType": "uint256",
          "name": "",
          "type": "uint256"
        }
      ],
      "stateMutability": "view",
      "type": "function"
    },
    {
      "inputs": [],
      "name": "getInterval",
      "outputs": [
        {
          "internalType": "uint256",
          "name": "",
          "type": "uint256"
        }
      ],
      "stateMutability": "view",
      "type": "function"
    },
    {
      "inputs": [],
      "name": "getLatestTimestamp",
      "outputs": [
        {
          "internalType": "uint256",
          "name": "",
          "type": "uint256"
        }
      ],
      "stateMutability": "view",
      "type": "function"
    },
    {
      "inputs": [],
      "name": "getNumWords",
      "outputs": [
        {
          "internalType": "uint256",
          "name": "",
          "type": "uint256"
        }
      ],
      "stateMutability": "pure",
      "type": "function"
    },
    {
      "inputs": [],
      "name": "getNumberOfPlayers",
      "outputs": [
        {
          "internalType": "uint256",
          "name": "",
          "type": "uint256"
        }
      ],
      "stateMutability": "view",
      "type": "function"
    },
    {
      "inputs": [
        {
          "internalType": "uint256",
          "name": "index",
          "type": "uint256"
        }
      ],
      "name": "getPlayers",
      "outputs": [
        {
          "internalType": "address",
          "name": "",
          "type": "address"
        }
      ],
      "stateMutability": "view",
      "type": "function"
    },
    {
      "inputs": [],
      "name": "getRaffleState",
      "outputs": [
        {
          "internalType": "enum Raffle.RaffleState",
          "name": "",
          "type": "uint8"
        }
      ],
      "stateMutability": "view",
      "type": "function"
    },
    {
      "inputs": [],
      "name": "getRecentWinner",
      "outputs": [
        {
          "internalType": "address",
          "name": "",
          "type": "address"
        }
      ],
      "stateMutability": "view",
      "type": "function"
    },
    {
      "inputs": [],
      "name": "getRequestConfirmations",
      "outputs": [
        {
          "internalType": "uint256",
          "name": "",
          "type": "uint256"
        }
      ],
      "stateMutability": "pure",
      "type": "function"
    },
    {
      "inputs": [
        {
          "internalType": "bytes",
          "name": "",
          "type": "bytes"
        }
      ],
      "name": "performUpkeep",
      "outputs": [],
      "stateMutability": "nonpayable",
      "type": "function"
    },
    {
      "inputs": [
        {
          "internalType": "uint256",
          "name": "requestId",
          "type": "uint256"
        },
        {
          "internalType": "uint256[]",
          "name": "randomWords",
          "type": "uint256[]"
        }
      ],
      "name": "rawFulfillRandomWords",
      "outputs": [],
      "stateMutability": "nonpayable",
      "type": "function"
    }
  ],
  "bytecode": "0x6101606040523480156200001257600080fd5b5060405162001874380380620018748339818101604052810190620000389190620001ad565b858073ffffffffffffffffffffffffffffffffffffffff1660808173ffffffffffffffffffffffffffffffffffffffff1660601b81525050508460a081815250508573ffffffffffffffffffffffffffffffffffffffff1660c08173ffffffffffffffffffffffffffffffffffffffff1660601b815250508360e081815250508267ffffffffffffffff166101008167ffffffffffffffff1660c01b815250508163ffffffff166101208163ffffffff1660e01b815250506000600160146101000a81548160ff02191690836001811115620001195762000118620002b5565b5b0217905550426002819055508061014081815250505050505050506200036b565b6000815190506200014b81620002e9565b92915050565b600081519050620001628162000303565b92915050565b60008151905062000179816200031d565b92915050565b600081519050620001908162000337565b92915050565b600081519050620001a78162000351565b92915050565b60008060008060008060c08789031215620001cd57620001cc620002e4565b5b6000620001dd89828a016200013a565b9650506020620001f089828a0162000168565b95505060406200020389828a0162000151565b94505060606200021689828a0162000196565b93505060806200022989828a016200017f565b92505060a06200023c89828a0162000168565b9150509295509295509295565b6000620002568262000267565b9050919050565b6000819050919050565b600073ffffffffffffffffffffffffffffffffffffffff82169050919050565b6000819050919050565b600063ffffffff82169050919050565b600067ffffffffffffffff82169050919050565b7f4e487b7100000000000000000000000000000000000000000000000000000000600052602160045260246000fd5b600080fd5b620002f48162000249565b81146200030057600080fd5b50565b6200030e816200025d565b81146200031a57600080fd5b50565b620003288162000287565b81146200033457600080fd5b50565b620003428162000291565b81146200034e57600080fd5b50565b6200035c81620002a1565b81146200036857600080fd5b50565b60805160601c60a05160c05160601c60e0516101005160c01c6101205160e01c6101405161148d620003e76000396000818161083301526108dc0152600061069b01526000610678015260006106570152600061061b0152600081816102fa01526103f7015260008181610337015261038b015261148d6000f3fe6080604052600436106100c25760003560e01c8063473f1ddc1161007f5780636e04ff0d116100595780636e04ff0d1461023757806391ad27b414610275578063f43b52cb146102a0578063fd6673f5146102cb576100c2565b8063473f1ddc146101b657806353a2c19a146101e15780635f1b0fd81461020c576100c2565b806309bc33a7146100c7578063115cbaf5146100f25780631fe543e31461011d5780632cfcc539146101465780634585e33b14610150578063460e204914610179575b600080fd5b3480156100d357600080fd5b506100dc6102f6565b6040516100e99190611093565b60405180910390f35b3480156100fe57600080fd5b5061010761031e565b6040516101149190611078565b60405180910390f35b34801561012957600080fd5b50610144600480360381019061013f9190610e6c565b610335565b005b61014e6103f5565b005b34801561015c57600080fd5b5061017760048036038101906101729190610d7c565b610564565b005b34801561018557600080fd5b506101a0600480360381019061019b9190610e12565b610763565b6040516101ad9190610fb1565b60405180910390f35b3480156101c257600080fd5b506101cb6107aa565b6040516101d89190610fb1565b60405180910390f35b3480156101ed57600080fd5b506101f66107d4565b6040516102039190611093565b60405180910390f35b34801561021857600080fd5b506102216107e3565b60405161022e9190611093565b60405180910390f35b34801561024357600080fd5b5061025e60048036038101906102599190610dc9565b6107f0565b60405161026c929190610ff5565b60405180910390f35b34801561028157600080fd5b5061028a6108d8565b6040516102979190611093565b60405180910390f35b3480156102ac57600080fd5b506102b5610900565b6040516102c29190611093565b60405180910390f35b3480156102d757600080fd5b506102e061090a565b6040516102ed9190611093565b60405180910390f35b60007f0000000000000000000000000000000000000000000000000000000000000000905090565b6000600160149054906101000a900460ff16905090565b7f000000000000000000000000000000000000000000000000000000000000000073ffffffffffffffffffffffffffffffffffffffff163373ffffffffffffffffffffffffffffffffffffffff16146103e757337f00000000000000000000000000000000000000000000000000000000000000006040517f1cf993f40000000000000000000000000000000000000000000000000000000081526004016103de929190610fcc565b60405180910390fd5b6103f18282610916565b5050565b7f000000000000000000000000000000000000000000000000000000000000000034101561044f576040517fbd4e069500000000000000000000000000000000000000000000000000000000815260040160405180910390fd5b600060018111156104635761046261136d565b5b600160149054906101000a900460ff1660018111156104855761048461136d565b5b146104bc576040517f1425571c00000000000000000000000000000000000000000000000000000000815260040160405180910390fd5b6000339080600181540180825580915050600190039060005260206000200160009091909190916101000a81548173ffffffffffffffffffffffffffffffffffffffff021916908373ffffffffffffffffffffffffffffffffffffffff1602179055503373ffffffffffffffffffffffffffffffffffffffff167f0805e1d667bddb8a95f0f09880cf94f403fb596ce79928d9f29b74203ba284d460405160405180910390a2565b600061057e604051806020016040528060008152506107f0565b509050806105ed5747600080549050600160149054906101000a900460ff1660018111156105af576105ae61136d565b5b6040517f584327aa0000000000000000000000000000000000000000000000000000000081526004016105e4939291906110ae565b60405180910390fd5b60018060146101000a81548160ff021916908360018111156106125761061161136d565b5b021790555060007f000000000000000000000000000000000000000000000000000000000000000073ffffffffffffffffffffffffffffffffffffffff16635d3b1d307f00000000000000000000000000000000000000000000000000000000000000007f000000000000000000000000000000000000000000000000000000000000000060037f000000000000000000000000000000000000000000000000000000000000000060016040518663ffffffff1660e01b81526004016106dc959493929190611025565b602060405180830381600087803b1580156106f657600080fd5b505af115801561070a573d6000803e3d6000fd5b505050506040513d601f19601f8201168201806040525081019061072e9190610e3f565b9050807fcd6e45c8998311cab7e9d4385596cac867e20a0587194b954fa3a731c93ce78b60405160405180910390a250505050565b60008082815481106107785761077761139c565b5b9060005260206000200160009054906101000a900473ffffffffffffffffffffffffffffffffffffffff169050919050565b6000600160009054906101000a900473ffffffffffffffffffffffffffffffffffffffff16905090565b6000600163ffffffff16905090565b6000600361ffff16905090565b600060606000600160149054906101000a900460ff1660018111156108185761081761136d565b5b6000600181111561082c5761082b61136d565b5b14905060007f000000000000000000000000000000000000000000000000000000000000000060025442610860919061118e565b119050600080600080549050119050600080471190508280156108805750835b80156108895750805b80156108925750815b9550856040518060400160405280600381526020017f30783000000000000000000000000000000000000000000000000000000000008152509550955050505050915091565b60007f0000000000000000000000000000000000000000000000000000000000000000905090565b6000600254905090565b60008080549050905090565b60008080549050826000815181106109315761093061139c565b5b602002602001015161094391906112de565b9050600080828154811061095a5761095961139c565b5b9060005260206000200160009054906101000a900473ffffffffffffffffffffffffffffffffffffffff16905080600160006101000a81548173ffffffffffffffffffffffffffffffffffffffff021916908373ffffffffffffffffffffffffffffffffffffffff1602179055506000600160146101000a81548160ff021916908360018111156109ee576109ed61136d565b5b0217905550600067ffffffffffffffff811115610a0e57610a0d6113cb565b5b604051908082528060200260200182016040528015610a3c5781602001602082028036833780820191505090505b5060009080519060200190610a52929190610b47565b504260028190555060008173ffffffffffffffffffffffffffffffffffffffff1647604051610a8090610f9c565b60006040518083038185875af1925050503d8060008114610abd576040519150601f19603f3d011682016040523d82523d6000602084013e610ac2565b606091505b5050905080610afd576040517fa1d04b3900000000000000000000000000000000000000000000000000000000815260040160405180910390fd5b8173ffffffffffffffffffffffffffffffffffffffff167f5b690ec4a06fe979403046eaeea5b3ce38524683c3001f662c8b5a829632f7df60405160405180910390a25050505050565b828054828255906000526020600020908101928215610bc0579160200282015b82811115610bbf5782518260006101000a81548173ffffffffffffffffffffffffffffffffffffffff021916908373ffffffffffffffffffffffffffffffffffffffff16021790555091602001919060010190610b67565b5b509050610bcd9190610bd1565b5090565b5b80821115610bea576000816000905550600101610bd2565b5090565b6000610c01610bfc8461110a565b6110e5565b90508083825260208201905082856020860282011115610c2457610c23611404565b5b60005b85811015610c545781610c3a8882610d52565b845260208401935060208301925050600181019050610c27565b5050509392505050565b6000610c71610c6c84611136565b6110e5565b905082815260208101848484011115610c8d57610c8c611409565b5b610c9884828561126b565b509392505050565b600082601f830112610cb557610cb46113ff565b5b8135610cc5848260208601610bee565b91505092915050565b60008083601f840112610ce457610ce36113ff565b5b8235905067ffffffffffffffff811115610d0157610d006113fa565b5b602083019150836001820283011115610d1d57610d1c611404565b5b9250929050565b600082601f830112610d3957610d386113ff565b5b8135610d49848260208601610c5e565b91505092915050565b600081359050610d6181611440565b92915050565b600081519050610d7681611440565b92915050565b60008060208385031215610d9357610d92611413565b5b600083013567ffffffffffffffff811115610db157610db061140e565b5b610dbd85828601610cce565b92509250509250929050565b600060208284031215610ddf57610dde611413565b5b600082013567ffffffffffffffff811115610dfd57610dfc61140e565b5b610e0984828501610d24565b91505092915050565b600060208284031215610e2857610e27611413565b5b6000610e3684828501610d52565b91505092915050565b600060208284031215610e5557610e54611413565b5b6000610e6384828501610d67565b91505092915050565b60008060408385031215610e8357610e82611413565b5b6000610e9185828601610d52565b925050602083013567ffffffffffffffff811115610eb257610eb161140e565b5b610ebe85828601610ca0565b9150509250929050565b610ed1816111c2565b82525050565b610ee0816111d4565b82525050565b610eef816111e0565b82525050565b6000610f0082611167565b610f0a8185611172565b9350610f1a81856020860161127a565b610f2381611418565b840191505092915050565b610f3781611259565b82525050565b6000610f4a600083611183565b9150610f5582611429565b600082019050919050565b610f69816111fd565b82525050565b610f788161122b565b82525050565b610f8781611235565b82525050565b610f9681611245565b82525050565b6000610fa782610f3d565b9150819050919050565b6000602082019050610fc66000830184610ec8565b92915050565b6000604082019050610fe16000830185610ec8565b610fee6020830184610ec8565b9392505050565b600060408201905061100a6000830185610ed7565b818103602083015261101c8184610ef5565b90509392505050565b600060a08201905061103a6000830188610ee6565b6110476020830187610f8d565b6110546040830186610f60565b6110616060830185610f7e565b61106e6080830184610f7e565b9695505050505050565b600060208201905061108d6000830184610f2e565b92915050565b60006020820190506110a86000830184610f6f565b92915050565b60006060820190506110c36000830186610f6f565b6110d06020830185610f6f565b6110dd6040830184610f6f565b949350505050565b60006110ef611100565b90506110fb82826112ad565b919050565b6000604051905090565b600067ffffffffffffffff821115611125576111246113cb565b5b602082029050602081019050919050565b600067ffffffffffffffff821115611151576111506113cb565b5b61115a82611418565b9050602081019050919050565b600081519050919050565b600082825260208201905092915050565b600081905092915050565b60006111998261122b565b91506111a48361122b565b9250828210156111b7576111b661130f565b5b828203905092915050565b60006111cd8261120b565b9050919050565b60008115159050919050565b6000819050919050565b60008190506111f88261142c565b919050565b600061ffff82169050919050565b600073ffffffffffffffffffffffffffffffffffffffff82169050919050565b6000819050919050565b600063ffffffff82169050919050565b600067ffffffffffffffff82169050919050565b6000611264826111ea565b9050919050565b82818337600083830152505050565b60005b8381101561129857808201518184015260208101905061127d565b838111156112a7576000848401525b50505050565b6112b682611418565b810181811067ffffffffffffffff821117156112d5576112d46113cb565b5b80604052505050565b60006112e98261122b565b91506112f48361122b565b9250826113045761130361133e565b5b828206905092915050565b7f4e487b7100000000000000000000000000000000000000000000000000000000600052601160045260246000fd5b7f4e487b7100000000000000000000000000000000000000000000000000000000600052601260045260246000fd5b7f4e487b7100000000000000000000000000000000000000000000000000000000600052602160045260246000fd5b7f4e487b7100000000000000000000000000000000000000000000000000000000600052603260045260246000fd5b7f4e487b7100000000000000000000000000000000000000000000000000000000600052604160045260246000fd5b600080fd5b600080fd5b600080fd5b600080fd5b600080fd5b600080fd5b6000601f19601f8301169050919050565b50565b6002811061143d5761143c61136d565b5b50565b6114498161122b565b811461145457600080fd5b5056fea264697066735822122065ca1f670e86d1312dce0d684fc7879e0be7deef9b08e4ab3e62196891fda3f564736f6c63430008070033",
  "linkReferences": {},
  "deployedLinkReferences": {}
}