{
  "_format": "hh-sol-artifact-1",
  "contractName": "Raffle",
  "sourceName": "contracts/Raffle.sol",
  "abi": [
    {
      "inputs": [
        {
          "internalType": "address",
          "name": "vrfCoordinatorV2",
          "type": "address"
        },
        {
          "internalType": "uint256",
          "name": "entranceFee",
          "type": "uint256"
        },
        {
          "internalType": "bytes32",
          "name": "gasLane",
          "type": "bytes32"
        },
        {
          "internalType": "uint64",
          "name": "subscriptionId",
          "type": "uint64"
        },
        {
          "internalType": "uint32",
          "name": "callbackGasLimit",
          "type": "uint32"
        },
        {
          "internalType": "uint256",
          "name": "interval",
          "type": "uint256"
        }
      ],
      "stateMutability": "nonpayable",
      "type": "constructor"
    },
    {
      "inputs": [
        {
          "internalType": "address",
          "name": "have",
          "type": "address"
        },
        {
          "internalType": "address",
          "name": "want",
          "type": "address"
        }
      ],
      "name": "OnlyCoordinatorCanFulfill",
      "type": "error"
    },
    {
      "inputs": [],
      "name": "Raffle__NotEnoughETHEntered",
      "type": "error"
    },
    {
      "inputs": [],
      "name": "Raffle__NotOpen",
      "type": "error"
    },
    {
      "inputs": [],
      "name": "Raffle__TransferFailed",
      "type": "error"
    },
    {
      "inputs": [
        {
          "internalType": "uint256",
          "name": "currentBalance",
          "type": "uint256"
        },
        {
          "internalType": "uint256",
          "name": "numPlayers",
          "type": "uint256"
        },
        {
          "internalType": "uint256",
          "name": "raffleState",
          "type": "uint256"
        }
      ],
      "name": "Raffle__UpkeepNotNeeded",
      "type": "error"
    },
    {
      "anonymous": false,
      "inputs": [
        {
          "indexed": true,
          "internalType": "address",
          "name": "player",
          "type": "address"
        }
      ],
      "name": "RaffleEnter",
      "type": "event"
    },
    {
      "anonymous": false,
      "inputs": [
        {
          "indexed": true,
          "internalType": "uint256",
          "name": "requestId",
          "type": "uint256"
        }
      ],
      "name": "RequestedRaffleWinner",
      "type": "event"
    },
    {
      "anonymous": false,
      "inputs": [
        {
          "indexed": true,
          "internalType": "address",
          "name": "winner",
          "type": "address"
        }
      ],
      "name": "WinnerPicked",
      "type": "event"
    },
    {
      "inputs": [
        {
          "internalType": "bytes",
          "name": "",
          "type": "bytes"
        }
      ],
      "name": "checkUpkeep",
      "outputs": [
        {
          "internalType": "bool",
          "name": "upkeepNeeded",
          "type": "bool"
        },
        {
          "internalType": "bytes",
          "name": "",
          "type": "bytes"
        }
      ],
      "stateMutability": "view",
      "type": "function"
    },
    {
      "inputs": [],
      "name": "enterRaffle",
      "outputs": [],
      "stateMutability": "payable",
      "type": "function"
    },
    {
      "inputs": [],
      "name": "getEntranceFee",
      "outputs": [
        {
          "internalType": "uint256",
          "name": "",
          "type": "uint256"
        }
      ],
      "stateMutability": "view",
      "type": "function"
    },
    {
      "inputs": [],
      "name": "getNumWords",
      "outputs": [
        {
          "internalType": "uint32",
          "name": "",
          "type": "uint32"
        }
      ],
      "stateMutability": "view",
      "type": "function"
    },
    {
      "inputs": [
        {
          "internalType": "uint256",
          "name": "index",
          "type": "uint256"
        }
      ],
      "name": "getPlayers",
      "outputs": [
        {
          "internalType": "address",
          "name": "",
          "type": "address"
        }
      ],
      "stateMutability": "view",
      "type": "function"
    },
    {
      "inputs": [],
      "name": "getRaffleState",
      "outputs": [
        {
          "internalType": "enum Raffle.RaffleState",
          "name": "",
          "type": "uint8"
        }
      ],
      "stateMutability": "view",
      "type": "function"
    },
    {
      "inputs": [],
      "name": "getRecentWinner",
      "outputs": [
        {
          "internalType": "address",
          "name": "",
          "type": "address"
        }
      ],
      "stateMutability": "view",
      "type": "function"
    },
    {
      "inputs": [
        {
          "internalType": "bytes",
          "name": "",
          "type": "bytes"
        }
      ],
      "name": "performUpkeep",
      "outputs": [],
      "stateMutability": "nonpayable",
      "type": "function"
    },
    {
      "inputs": [
        {
          "internalType": "uint256",
          "name": "requestId",
          "type": "uint256"
        },
        {
          "internalType": "uint256[]",
          "name": "randomWords",
          "type": "uint256[]"
        }
      ],
      "name": "rawFulfillRandomWords",
      "outputs": [],
      "stateMutability": "nonpayable",
      "type": "function"
    }
  ],
  "bytecode": "0x6101606040523480156200001257600080fd5b506040516200174f3803806200174f8339818101604052810190620000389190620001ad565b858073ffffffffffffffffffffffffffffffffffffffff1660808173ffffffffffffffffffffffffffffffffffffffff1660601b81525050508460a081815250508573ffffffffffffffffffffffffffffffffffffffff1660c08173ffffffffffffffffffffffffffffffffffffffff1660601b815250508360e081815250508267ffffffffffffffff166101008167ffffffffffffffff1660c01b815250508163ffffffff166101208163ffffffff1660e01b815250506000600160146101000a81548160ff02191690836001811115620001195762000118620002b5565b5b0217905550426002819055508061014081815250505050505050506200036b565b6000815190506200014b81620002e9565b92915050565b600081519050620001628162000303565b92915050565b60008151905062000179816200031d565b92915050565b600081519050620001908162000337565b92915050565b600081519050620001a78162000351565b92915050565b60008060008060008060c08789031215620001cd57620001cc620002e4565b5b6000620001dd89828a016200013a565b9650506020620001f089828a0162000168565b95505060406200020389828a0162000151565b94505060606200021689828a0162000196565b93505060806200022989828a016200017f565b92505060a06200023c89828a0162000168565b9150509295509295509295565b6000620002568262000267565b9050919050565b6000819050919050565b600073ffffffffffffffffffffffffffffffffffffffff82169050919050565b6000819050919050565b600063ffffffff82169050919050565b600067ffffffffffffffff82169050919050565b7f4e487b7100000000000000000000000000000000000000000000000000000000600052602160045260246000fd5b600080fd5b620002f48162000249565b81146200030057600080fd5b50565b6200030e816200025d565b81146200031a57600080fd5b50565b620003288162000287565b81146200033457600080fd5b50565b620003428162000291565b81146200034e57600080fd5b50565b6200035c81620002a1565b81146200036857600080fd5b50565b60805160601c60a05160c05160601c60e0516101005160c01c6101205160e01c6101405161136f620003e06000396000610738015260006105b3015260006105900152600061056f01526000610533015260008181610212015261030f01526000818161024f01526102a3015261136f6000f3fe6080604052600436106100865760003560e01c80634585e33b116100595780634585e33b14610114578063460e20491461013d578063473f1ddc1461017a57806353a2c19a146101a55780636e04ff0d146101d057610086565b806309bc33a71461008b578063115cbaf5146100b65780631fe543e3146100e15780632cfcc5391461010a575b600080fd5b34801561009757600080fd5b506100a061020e565b6040516100ad9190610f5a565b60405180910390f35b3480156100c257600080fd5b506100cb610236565b6040516100d89190610f3f565b60405180910390f35b3480156100ed57600080fd5b5061010860048036038101906101039190610d33565b61024d565b005b61011261030d565b005b34801561012057600080fd5b5061013b60048036038101906101369190610c43565b61047c565b005b34801561014957600080fd5b50610164600480360381019061015f9190610cd9565b61067b565b6040516101719190610e78565b60405180910390f35b34801561018657600080fd5b5061018f6106c2565b60405161019c9190610e78565b60405180910390f35b3480156101b157600080fd5b506101ba6106ec565b6040516101c79190610fac565b60405180910390f35b3480156101dc57600080fd5b506101f760048036038101906101f29190610c90565b6106f5565b604051610205929190610ebc565b60405180910390f35b60007f0000000000000000000000000000000000000000000000000000000000000000905090565b6000600160149054906101000a900460ff16905090565b7f000000000000000000000000000000000000000000000000000000000000000073ffffffffffffffffffffffffffffffffffffffff163373ffffffffffffffffffffffffffffffffffffffff16146102ff57337f00000000000000000000000000000000000000000000000000000000000000006040517f1cf993f40000000000000000000000000000000000000000000000000000000081526004016102f6929190610e93565b60405180910390fd5b61030982826107dd565b5050565b7f0000000000000000000000000000000000000000000000000000000000000000341015610367576040517fbd4e069500000000000000000000000000000000000000000000000000000000815260040160405180910390fd5b6000600181111561037b5761037a61124f565b5b600160149054906101000a900460ff16600181111561039d5761039c61124f565b5b146103d4576040517f1425571c00000000000000000000000000000000000000000000000000000000815260040160405180910390fd5b6000339080600181540180825580915050600190039060005260206000200160009091909190916101000a81548173ffffffffffffffffffffffffffffffffffffffff021916908373ffffffffffffffffffffffffffffffffffffffff1602179055503373ffffffffffffffffffffffffffffffffffffffff167f0805e1d667bddb8a95f0f09880cf94f403fb596ce79928d9f29b74203ba284d460405160405180910390a2565b6000610496604051806020016040528060008152506106f5565b509050806105055747600080549050600160149054906101000a900460ff1660018111156104c7576104c661124f565b5b6040517f584327aa0000000000000000000000000000000000000000000000000000000081526004016104fc93929190610f75565b60405180910390fd5b60018060146101000a81548160ff0219169083600181111561052a5761052961124f565b5b021790555060007f000000000000000000000000000000000000000000000000000000000000000073ffffffffffffffffffffffffffffffffffffffff16635d3b1d307f00000000000000000000000000000000000000000000000000000000000000007f000000000000000000000000000000000000000000000000000000000000000060037f000000000000000000000000000000000000000000000000000000000000000060016040518663ffffffff1660e01b81526004016105f4959493929190610eec565b602060405180830381600087803b15801561060e57600080fd5b505af1158015610622573d6000803e3d6000fd5b505050506040513d601f19601f820116820180604052508101906106469190610d06565b9050807fcd6e45c8998311cab7e9d4385596cac867e20a0587194b954fa3a731c93ce78b60405160405180910390a250505050565b60008082815481106106905761068f61127e565b5b9060005260206000200160009054906101000a900473ffffffffffffffffffffffffffffffffffffffff169050919050565b6000600160009054906101000a900473ffffffffffffffffffffffffffffffffffffffff16905090565b60006001905090565b600060606000600160149054906101000a900460ff16600181111561071d5761071c61124f565b5b600060018111156107315761073061124f565b5b14905060007f0000000000000000000000000000000000000000000000000000000000000000600254426107659190611070565b119050600080600080549050119050600080471190508280156107855750835b801561078e5750805b80156107975750815b9550856040518060400160405280600381526020017f30783000000000000000000000000000000000000000000000000000000000008152509550955050505050915091565b60008080549050826000815181106107f8576107f761127e565b5b602002602001015161080a91906111c0565b905060008082815481106108215761082061127e565b5b9060005260206000200160009054906101000a900473ffffffffffffffffffffffffffffffffffffffff16905080600160006101000a81548173ffffffffffffffffffffffffffffffffffffffff021916908373ffffffffffffffffffffffffffffffffffffffff1602179055506000600160146101000a81548160ff021916908360018111156108b5576108b461124f565b5b0217905550600067ffffffffffffffff8111156108d5576108d46112ad565b5b6040519080825280602002602001820160405280156109035781602001602082028036833780820191505090505b5060009080519060200190610919929190610a0e565b504260028190555060008173ffffffffffffffffffffffffffffffffffffffff164760405161094790610e63565b60006040518083038185875af1925050503d8060008114610984576040519150601f19603f3d011682016040523d82523d6000602084013e610989565b606091505b50509050806109c4576040517fa1d04b3900000000000000000000000000000000000000000000000000000000815260040160405180910390fd5b8173ffffffffffffffffffffffffffffffffffffffff167f5b690ec4a06fe979403046eaeea5b3ce38524683c3001f662c8b5a829632f7df60405160405180910390a25050505050565b828054828255906000526020600020908101928215610a87579160200282015b82811115610a865782518260006101000a81548173ffffffffffffffffffffffffffffffffffffffff021916908373ffffffffffffffffffffffffffffffffffffffff16021790555091602001919060010190610a2e565b5b509050610a949190610a98565b5090565b5b80821115610ab1576000816000905550600101610a99565b5090565b6000610ac8610ac384610fec565b610fc7565b90508083825260208201905082856020860282011115610aeb57610aea6112e6565b5b60005b85811015610b1b5781610b018882610c19565b845260208401935060208301925050600181019050610aee565b5050509392505050565b6000610b38610b3384611018565b610fc7565b905082815260208101848484011115610b5457610b536112eb565b5b610b5f84828561114d565b509392505050565b600082601f830112610b7c57610b7b6112e1565b5b8135610b8c848260208601610ab5565b91505092915050565b60008083601f840112610bab57610baa6112e1565b5b8235905067ffffffffffffffff811115610bc857610bc76112dc565b5b602083019150836001820283011115610be457610be36112e6565b5b9250929050565b600082601f830112610c0057610bff6112e1565b5b8135610c10848260208601610b25565b91505092915050565b600081359050610c2881611322565b92915050565b600081519050610c3d81611322565b92915050565b60008060208385031215610c5a57610c596112f5565b5b600083013567ffffffffffffffff811115610c7857610c776112f0565b5b610c8485828601610b95565b92509250509250929050565b600060208284031215610ca657610ca56112f5565b5b600082013567ffffffffffffffff811115610cc457610cc36112f0565b5b610cd084828501610beb565b91505092915050565b600060208284031215610cef57610cee6112f5565b5b6000610cfd84828501610c19565b91505092915050565b600060208284031215610d1c57610d1b6112f5565b5b6000610d2a84828501610c2e565b91505092915050565b60008060408385031215610d4a57610d496112f5565b5b6000610d5885828601610c19565b925050602083013567ffffffffffffffff811115610d7957610d786112f0565b5b610d8585828601610b67565b9150509250929050565b610d98816110a4565b82525050565b610da7816110b6565b82525050565b610db6816110c2565b82525050565b6000610dc782611049565b610dd18185611054565b9350610de181856020860161115c565b610dea816112fa565b840191505092915050565b610dfe8161113b565b82525050565b6000610e11600083611065565b9150610e1c8261130b565b600082019050919050565b610e30816110df565b82525050565b610e3f8161110d565b82525050565b610e4e81611117565b82525050565b610e5d81611127565b82525050565b6000610e6e82610e04565b9150819050919050565b6000602082019050610e8d6000830184610d8f565b92915050565b6000604082019050610ea86000830185610d8f565b610eb56020830184610d8f565b9392505050565b6000604082019050610ed16000830185610d9e565b8181036020830152610ee38184610dbc565b90509392505050565b600060a082019050610f016000830188610dad565b610f0e6020830187610e54565b610f1b6040830186610e27565b610f286060830185610e45565b610f356080830184610e45565b9695505050505050565b6000602082019050610f546000830184610df5565b92915050565b6000602082019050610f6f6000830184610e36565b92915050565b6000606082019050610f8a6000830186610e36565b610f976020830185610e36565b610fa46040830184610e36565b949350505050565b6000602082019050610fc16000830184610e45565b92915050565b6000610fd1610fe2565b9050610fdd828261118f565b919050565b6000604051905090565b600067ffffffffffffffff821115611007576110066112ad565b5b602082029050602081019050919050565b600067ffffffffffffffff821115611033576110326112ad565b5b61103c826112fa565b9050602081019050919050565b600081519050919050565b600082825260208201905092915050565b600081905092915050565b600061107b8261110d565b91506110868361110d565b925082821015611099576110986111f1565b5b828203905092915050565b60006110af826110ed565b9050919050565b60008115159050919050565b6000819050919050565b60008190506110da8261130e565b919050565b600061ffff82169050919050565b600073ffffffffffffffffffffffffffffffffffffffff82169050919050565b6000819050919050565b600063ffffffff82169050919050565b600067ffffffffffffffff82169050919050565b6000611146826110cc565b9050919050565b82818337600083830152505050565b60005b8381101561117a57808201518184015260208101905061115f565b83811115611189576000848401525b50505050565b611198826112fa565b810181811067ffffffffffffffff821117156111b7576111b66112ad565b5b80604052505050565b60006111cb8261110d565b91506111d68361110d565b9250826111e6576111e5611220565b5b828206905092915050565b7f4e487b7100000000000000000000000000000000000000000000000000000000600052601160045260246000fd5b7f4e487b7100000000000000000000000000000000000000000000000000000000600052601260045260246000fd5b7f4e487b7100000000000000000000000000000000000000000000000000000000600052602160045260246000fd5b7f4e487b7100000000000000000000000000000000000000000000000000000000600052603260045260246000fd5b7f4e487b7100000000000000000000000000000000000000000000000000000000600052604160045260246000fd5b600080fd5b600080fd5b600080fd5b600080fd5b600080fd5b600080fd5b6000601f19601f8301169050919050565b50565b6002811061131f5761131e61124f565b5b50565b61132b8161110d565b811461133657600080fd5b5056fea264697066735822122095aff6917fef1e245318801ab79b88276605f03cee6d8feb9ccd4e327a95da0c64736f6c63430008070033",
  "linkReferences": {},
  "deployedLinkReferences": {}
}