{
  "_format": "hh-sol-artifact-1",
  "contractName": "Raffle",
  "sourceName": "contracts/Raffle.sol",
  "abi": [
    {
      "inputs": [
        {
          "internalType": "address",
          "name": "vrfCoordinatorV2",
          "type": "address"
        },
        {
          "internalType": "uint256",
          "name": "entranceFee",
          "type": "uint256"
        }
      ],
      "stateMutability": "nonpayable",
      "type": "constructor"
    },
    {
      "inputs": [
        {
          "internalType": "address",
          "name": "have",
          "type": "address"
        },
        {
          "internalType": "address",
          "name": "want",
          "type": "address"
        }
      ],
      "name": "OnlyCoordinatorCanFulfill",
      "type": "error"
    },
    {
      "inputs": [],
      "name": "Raffle_NotEnoughETHEntered",
      "type": "error"
    },
    {
      "anonymous": false,
      "inputs": [
        {
          "indexed": true,
          "internalType": "address",
          "name": "player",
          "type": "address"
        }
      ],
      "name": "RaffleEnter",
      "type": "event"
    },
    {
      "inputs": [],
      "name": "enterRaffle",
      "outputs": [],
      "stateMutability": "payable",
      "type": "function"
    },
    {
      "inputs": [],
      "name": "getEntranceFee",
      "outputs": [
        {
          "internalType": "uint256",
          "name": "",
          "type": "uint256"
        }
      ],
      "stateMutability": "view",
      "type": "function"
    },
    {
      "inputs": [
        {
          "internalType": "uint256",
          "name": "index",
          "type": "uint256"
        }
      ],
      "name": "getPlayers",
      "outputs": [
        {
          "internalType": "address",
          "name": "",
          "type": "address"
        }
      ],
      "stateMutability": "view",
      "type": "function"
    },
    {
      "inputs": [
        {
          "internalType": "uint256",
          "name": "requestId",
          "type": "uint256"
        },
        {
          "internalType": "uint256[]",
          "name": "randomWords",
          "type": "uint256[]"
        }
      ],
      "name": "rawFulfillRandomWords",
      "outputs": [],
      "stateMutability": "nonpayable",
      "type": "function"
    },
    {
      "inputs": [],
      "name": "requestRandomWinner",
      "outputs": [],
      "stateMutability": "nonpayable",
      "type": "function"
    }
  ],
  "bytecode": "0x60c060405234801561001057600080fd5b50604051610808380380610808833981810160405281019061003291906100a4565b818073ffffffffffffffffffffffffffffffffffffffff1660808173ffffffffffffffffffffffffffffffffffffffff1660601b81525050508060a081815250505050610153565b60008151905061008981610125565b92915050565b60008151905061009e8161013c565b92915050565b600080604083850312156100bb576100ba610120565b5b60006100c98582860161007a565b92505060206100da8582860161008f565b9150509250929050565b60006100ef826100f6565b9050919050565b600073ffffffffffffffffffffffffffffffffffffffff82169050919050565b6000819050919050565b600080fd5b61012e816100e4565b811461013957600080fd5b50565b61014581610116565b811461015057600080fd5b50565b60805160601c60a05161067f6101896000396000818161010501526101eb01526000818161012b015261017f015261067f6000f3fe60806040526004361061004a5760003560e01c806309bc33a71461004f5780631fe543e31461007a5780632cfcc539146100a3578063460e2049146100ad578063522a1f0b146100ea575b600080fd5b34801561005b57600080fd5b50610064610101565b60405161007191906104d6565b60405180910390f35b34801561008657600080fd5b506100a1600480360381019061009c9190610418565b610129565b005b6100ab6101e9565b005b3480156100b957600080fd5b506100d460048036038101906100cf91906103eb565b6102eb565b6040516100e19190610492565b60405180910390f35b3480156100f657600080fd5b506100ff610332565b005b60007f0000000000000000000000000000000000000000000000000000000000000000905090565b7f000000000000000000000000000000000000000000000000000000000000000073ffffffffffffffffffffffffffffffffffffffff163373ffffffffffffffffffffffffffffffffffffffff16146101db57337f00000000000000000000000000000000000000000000000000000000000000006040517f1cf993f40000000000000000000000000000000000000000000000000000000081526004016101d29291906104ad565b60405180910390fd5b6101e58282610334565b5050565b7f0000000000000000000000000000000000000000000000000000000000000000341015610243576040517f74938f2700000000000000000000000000000000000000000000000000000000815260040160405180910390fd5b6000339080600181540180825580915050600190039060005260206000200160009091909190916101000a81548173ffffffffffffffffffffffffffffffffffffffff021916908373ffffffffffffffffffffffffffffffffffffffff1602179055503373ffffffffffffffffffffffffffffffffffffffff167f0805e1d667bddb8a95f0f09880cf94f403fb596ce79928d9f29b74203ba284d460405160405180910390a2565b6000808281548110610300576102ff6105af565b5b9060005260206000200160009054906101000a900473ffffffffffffffffffffffffffffffffffffffff169050919050565b565b5050565b600061034b61034684610516565b6104f1565b9050808382526020820190508285602086028201111561036e5761036d610612565b5b60005b8581101561039e578161038488826103d6565b845260208401935060208301925050600181019050610371565b5050509392505050565b600082601f8301126103bd576103bc61060d565b5b81356103cd848260208601610338565b91505092915050565b6000813590506103e581610632565b92915050565b6000602082840312156104015761040061061c565b5b600061040f848285016103d6565b91505092915050565b6000806040838503121561042f5761042e61061c565b5b600061043d858286016103d6565b925050602083013567ffffffffffffffff81111561045e5761045d610617565b5b61046a858286016103a8565b9150509250929050565b61047d81610542565b82525050565b61048c81610574565b82525050565b60006020820190506104a76000830184610474565b92915050565b60006040820190506104c26000830185610474565b6104cf6020830184610474565b9392505050565b60006020820190506104eb6000830184610483565b92915050565b60006104fb61050c565b9050610507828261057e565b919050565b6000604051905090565b600067ffffffffffffffff821115610531576105306105de565b5b602082029050602081019050919050565b600061054d82610554565b9050919050565b600073ffffffffffffffffffffffffffffffffffffffff82169050919050565b6000819050919050565b61058782610621565b810181811067ffffffffffffffff821117156105a6576105a56105de565b5b80604052505050565b7f4e487b7100000000000000000000000000000000000000000000000000000000600052603260045260246000fd5b7f4e487b7100000000000000000000000000000000000000000000000000000000600052604160045260246000fd5b600080fd5b600080fd5b600080fd5b600080fd5b6000601f19601f8301169050919050565b61063b81610574565b811461064657600080fd5b5056fea2646970667358221220892b5b9df808459086aacd70c8298712990f13f334a72df34166d1fbe7506bff64736f6c63430008070033",
  "linkReferences": {},
  "deployedLinkReferences": {}
}