{
  "_format": "hh-sol-artifact-1",
  "contractName": "Encoding",
  "sourceName": "contracts/Encoding.sol",
  "abi": [
    {
      "inputs": [],
      "name": "combineStrings",
      "outputs": [
        {
          "internalType": "string",
          "name": "",
          "type": "string"
        }
      ],
      "stateMutability": "pure",
      "type": "function"
    },
    {
      "inputs": [],
      "name": "decodeString",
      "outputs": [
        {
          "internalType": "string",
          "name": "",
          "type": "string"
        }
      ],
      "stateMutability": "pure",
      "type": "function"
    },
    {
      "inputs": [],
      "name": "encodeNumber",
      "outputs": [
        {
          "internalType": "bytes",
          "name": "",
          "type": "bytes"
        }
      ],
      "stateMutability": "pure",
      "type": "function"
    },
    {
      "inputs": [],
      "name": "encodeString",
      "outputs": [
        {
          "internalType": "bytes",
          "name": "",
          "type": "bytes"
        }
      ],
      "stateMutability": "pure",
      "type": "function"
    },
    {
      "inputs": [],
      "name": "encodeStringBytes",
      "outputs": [
        {
          "internalType": "bytes",
          "name": "",
          "type": "bytes"
        }
      ],
      "stateMutability": "pure",
      "type": "function"
    },
    {
      "inputs": [],
      "name": "encodeStringPacked",
      "outputs": [
        {
          "internalType": "bytes",
          "name": "",
          "type": "bytes"
        }
      ],
      "stateMutability": "pure",
      "type": "function"
    },
    {
      "inputs": [],
      "name": "multiDecode",
      "outputs": [
        {
          "internalType": "string",
          "name": "",
          "type": "string"
        },
        {
          "internalType": "string",
          "name": "",
          "type": "string"
        }
      ],
      "stateMutability": "pure",
      "type": "function"
    },
    {
      "inputs": [],
      "name": "multiDecodePacked",
      "outputs": [
        {
          "internalType": "string",
          "name": "",
          "type": "string"
        }
      ],
      "stateMutability": "pure",
      "type": "function"
    },
    {
      "inputs": [],
      "name": "multiEncode",
      "outputs": [
        {
          "internalType": "bytes",
          "name": "",
          "type": "bytes"
        }
      ],
      "stateMutability": "pure",
      "type": "function"
    },
    {
      "inputs": [],
      "name": "multiEncodePacked",
      "outputs": [
        {
          "internalType": "bytes",
          "name": "",
          "type": "bytes"
        }
      ],
      "stateMutability": "pure",
      "type": "function"
    },
    {
      "inputs": [],
      "name": "multiStringCastPacked",
      "outputs": [
        {
          "internalType": "string",
          "name": "",
          "type": "string"
        }
      ],
      "stateMutability": "pure",
      "type": "function"
    }
  ],
  "bytecode": "0x608060405234801561001057600080fd5b50610a2a806100206000396000f3fe608060405234801561001057600080fd5b50600436106100a95760003560e01c8063929b807e11610071578063929b807e14610144578063a6dc49b814610162578063a77b036014610180578063b47487181461019e578063c452d79b146101bc578063ed5df365146101db576100a9565b8063114a7610146100ae57806315889d1a146100cc5780632085f4b9146100ea578063406ec9f21461010857806360ee46c314610126575b600080fd5b6100b66101f9565b6040516100c3919061046a565b60405180910390f35b6100d461021e565b6040516100e191906104e1565b60405180910390f35b6100f261024c565b6040516100ff91906104e1565b60405180910390f35b610110610277565b60405161011d91906104e1565b60405180910390f35b61012e6102ba565b60405161013b919061046a565b60405180910390f35b61014c6102cf565b604051610159919061046a565b60405180910390f35b61016a6102f7565b60405161017791906104e1565b60405180910390f35b610188610322565b604051610195919061046a565b60405180910390f35b6101a661034a565b6040516101b391906104e1565b60405180910390f35b6101c4610375565b6040516101d2929190610503565b60405180910390f35b6101e36103a6565b6040516101f091906104e1565b60405180910390f35b606060405160200161020a906105dd565b604051602081830303815290604052905090565b606060006001604051602001610234919061064f565b60405160208183030381529060405290508091505090565b6060600060405160200161025f906106b6565b60405160208183030381529060405290508091505090565b606060006040518060400160405280600b81526020017f736f6d6520537472696e6700000000000000000000000000000000000000000081525090508091505090565b606060006102c661034a565b90508091505090565b606060006102db61034a565b8060200190518101906102ee9190610805565b90508091505090565b6060600060405160200161030a906108e6565b60405160208183030381529060405290508091505090565b6060600061032e6103a6565b8060200190518101906103419190610805565b90508091505090565b6060600060405160200161035d9061093c565b60405160208183030381529060405290508091505090565b6060806000806103836102f7565b806020019051810190610396919061095c565b9150915081819350935050509091565b606060006040516020016103b9906109d4565b60405160208183030381529060405290508091505090565b600081519050919050565b600082825260208201905092915050565b60005b8381101561040b5780820151818401526020810190506103f0565b8381111561041a576000848401525b50505050565b6000601f19601f8301169050919050565b600061043c826103d1565b61044681856103dc565b93506104568185602086016103ed565b61045f81610420565b840191505092915050565b600060208201905081810360008301526104848184610431565b905092915050565b600081519050919050565b600082825260208201905092915050565b60006104b38261048c565b6104bd8185610497565b93506104cd8185602086016103ed565b6104d681610420565b840191505092915050565b600060208201905081810360008301526104fb81846104a8565b905092915050565b6000604082019050818103600083015261051d8185610431565b905081810360208301526105318184610431565b90509392505050565b600081905092915050565b7f4869206d6f6d2100000000000000000000000000000000000000000000000000600082015250565b600061057b60078361053a565b915061058682610545565b600782019050919050565b7f4d69737320796f75210000000000000000000000000000000000000000000000600082015250565b60006105c760098361053a565b91506105d282610591565b600982019050919050565b60006105e88261056e565b91506105f3826105ba565b9150819050919050565b6000819050919050565b600060ff82169050919050565b6000819050919050565b600061063961063461062f846105fd565b610614565b610607565b9050919050565b6106498161061e565b82525050565b60006020820190506106646000830184610640565b92915050565b7f736f6d6520737472696e67000000000000000000000000000000000000000000600082015250565b60006106a0600b8361053a565b91506106ab8261066a565b600b82019050919050565b60006106c182610693565b9150819050919050565b6000604051905090565b600080fd5b600080fd5b600080fd5b600080fd5b7f4e487b7100000000000000000000000000000000000000000000000000000000600052604160045260246000fd5b61072182610420565b810181811067ffffffffffffffff821117156107405761073f6106e9565b5b80604052505050565b60006107536106cb565b905061075f8282610718565b919050565b600067ffffffffffffffff82111561077f5761077e6106e9565b5b61078882610420565b9050602081019050919050565b60006107a86107a384610764565b610749565b9050828152602081018484840111156107c4576107c36106e4565b5b6107cf8482856103ed565b509392505050565b600082601f8301126107ec576107eb6106df565b5b81516107fc848260208601610795565b91505092915050565b60006020828403121561081b5761081a6106d5565b5b600082015167ffffffffffffffff811115610839576108386106da565b5b610845848285016107d7565b91505092915050565b7f536f6d6520737472696e67000000000000000000000000000000000000000000600082015250565b6000610884600b836103dc565b915061088f8261084e565b602082019050919050565b7f6974206973206269676765720000000000000000000000000000000000000000600082015250565b60006108d0600c836103dc565b91506108db8261089a565b602082019050919050565b600060408201905081810360008301526108ff81610877565b90508181036020830152610912816108c3565b9050919050565b6000610926600c8361053a565b91506109318261089a565b600c82019050919050565b600061094782610693565b915061095282610919565b9150819050919050565b60008060408385031215610973576109726106d5565b5b600083015167ffffffffffffffff811115610991576109906106da565b5b61099d858286016107d7565b925050602083015167ffffffffffffffff8111156109be576109bd6106da565b5b6109ca858286016107d7565b9150509250929050565b600060208201905081810360008301526109ed81610877565b905091905056fea2646970667358221220f4ad740e2b7cecee37acea1785621c526b062f44178fa49649e76133e1453f0664736f6c63430008080033",
  "linkReferences": {},
  "deployedLinkReferences": {}
}